{
  "_format": "hh-sol-artifact-1",
  "contractName": "PT",
  "sourceName": "contracts/PT.sol",
  "contractAddress": "0x7E4c20FBD7FD01aE7Ac1a8920332516895D968B8",
  "abi": [
    {
      "inputs": [],
      "stateMutability": "nonpayable",
      "type": "constructor"
    },
    {
      "inputs": [
        {
          "internalType": "string",
          "name": "id",
          "type": "string"
        },
        {
          "internalType": "string",
          "name": "_name",
          "type": "string"
        },
        {
          "internalType": "uint256",
          "name": "_bought_weight",
          "type": "uint256"
        },
        {
          "internalType": "uint256",
          "name": "_sold_weight",
          "type": "uint256"
        }
      ],
      "name": "addProductByFarmer",
      "outputs": [],
      "stateMutability": "nonpayable",
      "type": "function"
    },
    {
      "inputs": [
        {
          "internalType": "string",
          "name": "_id",
          "type": "string"
        },
        {
          "internalType": "uint256",
          "name": "weight_to_buy",
          "type": "uint256"
        },
        {
          "internalType": "string",
          "name": "_prev",
          "type": "string"
        }
      ],
      "name": "addProductByTrader",
      "outputs": [],
      "stateMutability": "nonpayable",
      "type": "function"
    },
    {
      "inputs": [
        {
          "internalType": "string",
          "name": "_id",
          "type": "string"
        }
      ],
      "name": "getProduct",
      "outputs": [
        {
          "components": [
            {
              "internalType": "string",
              "name": "name",
              "type": "string"
            },
            {
              "internalType": "uint256",
              "name": "bought_weight",
              "type": "uint256"
            },
            {
              "internalType": "uint256",
              "name": "sold_weight",
              "type": "uint256"
            },
            {
              "internalType": "string",
              "name": "prev",
              "type": "string"
            },
            {
              "internalType": "bool",
              "name": "isConsumed",
              "type": "bool"
            }
          ],
          "internalType": "struct PT.Product",
          "name": "",
          "type": "tuple"
        }
      ],
      "stateMutability": "view",
      "type": "function"
    },
    {
      "inputs": [
        {
          "internalType": "string",
          "name": "_id",
          "type": "string"
        }
      ],
      "name": "getProductNameFromId",
      "outputs": [
        {
          "internalType": "string",
          "name": "",
          "type": "string"
        }
      ],
      "stateMutability": "view",
      "type": "function"
    },
    {
      "inputs": [
        {
          "internalType": "string",
          "name": "",
          "type": "string"
        }
      ],
      "name": "transactions",
      "outputs": [
        {
          "internalType": "string",
          "name": "name",
          "type": "string"
        },
        {
          "internalType": "uint256",
          "name": "bought_weight",
          "type": "uint256"
        },
        {
          "internalType": "uint256",
          "name": "sold_weight",
          "type": "uint256"
        },
        {
          "internalType": "string",
          "name": "prev",
          "type": "string"
        },
        {
          "internalType": "bool",
          "name": "isConsumed",
          "type": "bool"
        }
      ],
      "stateMutability": "view",
      "type": "function"
    }
  ],
  "bytecode": "0x608060405234801561001057600080fd5b506110c5806100206000396000f3fe608060405234801561001057600080fd5b50600436106100575760003560e01c8063022236f41461005c57806334e223401461009057806359f41b26146100ac57806368111cce146100c85780637182ed26146100f8575b600080fd5b610076600480360381019061007191906108d2565b610128565b6040516100879594939291906109ce565b60405180910390f35b6100aa60048036038101906100a59190610abb565b610291565b005b6100c660048036038101906100c19190610b50565b6103fb565b005b6100e260048036038101906100dd91906108d2565b610509565b6040516100ef9190610cdc565b60405180910390f35b610112600480360381019061010d91906108d2565b610694565b60405161011f9190610cfe565b60405180910390f35b60008180516020810182018051848252602083016020850120818352809550505050505060009150905080600001805461016190610d4f565b80601f016020809104026020016040519081016040528092919081815260200182805461018d90610d4f565b80156101da5780601f106101af576101008083540402835291602001916101da565b820191906000526020600020905b8154815290600101906020018083116101bd57829003601f168201915b5050505050908060010154908060020154908060030180546101fb90610d4f565b80601f016020809104026020016040519081016040528092919081815260200182805461022790610d4f565b80156102745780601f1061024957610100808354040283529160200191610274565b820191906000526020600020905b81548152906001019060200180831161025757829003601f168201915b5050505050908060040160009054906101000a900460ff16905085565b60006102e083838080601f016020809104026020016040519081016040528093929190818152602001838380828437600081840152601f19601f82011690508083019250505050505050610509565b90506000848260200151036102f457600190505b60006040518060a00160405280846000015181526020018460200151815260200187815260200186868080601f016020809104026020016040519081016040528093929190818152602001838380828437600081840152601f19601f82011690508083019250505050505050815260200183151581525090508060008989604051610380929190610db0565b908152602001604051809103902060008201518160000190816103a39190610f75565b50602082015181600101556040820151816002015560608201518160030190816103cd9190610f75565b5060808201518160040160006101000a81548160ff0219169083151502179055509050505050505050505050565b60006040518060a0016040528086868080601f016020809104026020016040519081016040528093929190818152602001838380828437600081840152601f19601f820116905080830192505050505050508152602001848152602001838152602001604051806020016040528060008152508152602001600015158152509050806000888860405161048f929190610db0565b908152602001604051809103902060008201518160000190816104b29190610f75565b50602082015181600101556040820151816002015560608201518160030190816104dc9190610f75565b5060808201518160040160006101000a81548160ff02191690831515021790555090505050505050505050565b610511610747565b6000826040516105219190611078565b90815260200160405180910390206040518060a001604052908160008201805461054a90610d4f565b80601f016020809104026020016040519081016040528092919081815260200182805461057690610d4f565b80156105c35780601f10610598576101008083540402835291602001916105c3565b820191906000526020600020905b8154815290600101906020018083116105a657829003601f168201915b5050505050815260200160018201548152602001600282015481526020016003820180546105f090610d4f565b80601f016020809104026020016040519081016040528092919081815260200182805461061c90610d4f565b80156106695780601f1061063e57610100808354040283529160200191610669565b820191906000526020600020905b81548152906001019060200180831161064c57829003601f168201915b505050505081526020016004820160009054906101000a900460ff1615151515815250509050919050565b60606000826040516106a69190611078565b908152602001604051809103902060000180546106c290610d4f565b80601f01602080910402602001604051908101604052809291908181526020018280546106ee90610d4f565b801561073b5780601f106107105761010080835404028352916020019161073b565b820191906000526020600020905b81548152906001019060200180831161071e57829003601f168201915b50505050509050919050565b6040518060a00160405280606081526020016000815260200160008152602001606081526020016000151581525090565b6000604051905090565b600080fd5b600080fd5b600080fd5b600080fd5b6000601f19601f8301169050919050565b7f4e487b7100000000000000000000000000000000000000000000000000000000600052604160045260246000fd5b6107df82610796565b810181811067ffffffffffffffff821117156107fe576107fd6107a7565b5b80604052505050565b6000610811610778565b905061081d82826107d6565b919050565b600067ffffffffffffffff82111561083d5761083c6107a7565b5b61084682610796565b9050602081019050919050565b82818337600083830152505050565b600061087561087084610822565b610807565b90508281526020810184848401111561089157610890610791565b5b61089c848285610853565b509392505050565b600082601f8301126108b9576108b861078c565b5b81356108c9848260208601610862565b91505092915050565b6000602082840312156108e8576108e7610782565b5b600082013567ffffffffffffffff81111561090657610905610787565b5b610912848285016108a4565b91505092915050565b600081519050919050565b600082825260208201905092915050565b60005b8381101561095557808201518184015260208101905061093a565b60008484015250505050565b600061096c8261091b565b6109768185610926565b9350610986818560208601610937565b61098f81610796565b840191505092915050565b6000819050919050565b6109ad8161099a565b82525050565b60008115159050919050565b6109c8816109b3565b82525050565b600060a08201905081810360008301526109e88188610961565b90506109f760208301876109a4565b610a0460408301866109a4565b8181036060830152610a168185610961565b9050610a2560808301846109bf565b9695505050505050565b600080fd5b600080fd5b60008083601f840112610a4f57610a4e61078c565b5b8235905067ffffffffffffffff811115610a6c57610a6b610a2f565b5b602083019150836001820283011115610a8857610a87610a34565b5b9250929050565b610a988161099a565b8114610aa357600080fd5b50565b600081359050610ab581610a8f565b92915050565b600080600080600060608688031215610ad757610ad6610782565b5b600086013567ffffffffffffffff811115610af557610af4610787565b5b610b0188828901610a39565b95509550506020610b1488828901610aa6565b935050604086013567ffffffffffffffff811115610b3557610b34610787565b5b610b4188828901610a39565b92509250509295509295909350565b60008060008060008060808789031215610b6d57610b6c610782565b5b600087013567ffffffffffffffff811115610b8b57610b8a610787565b5b610b9789828a01610a39565b9650965050602087013567ffffffffffffffff811115610bba57610bb9610787565b5b610bc689828a01610a39565b94509450506040610bd989828a01610aa6565b9250506060610bea89828a01610aa6565b9150509295509295509295565b600082825260208201905092915050565b6000610c138261091b565b610c1d8185610bf7565b9350610c2d818560208601610937565b610c3681610796565b840191505092915050565b610c4a8161099a565b82525050565b610c59816109b3565b82525050565b600060a0830160008301518482036000860152610c7c8282610c08565b9150506020830151610c916020860182610c41565b506040830151610ca46040860182610c41565b5060608301518482036060860152610cbc8282610c08565b9150506080830151610cd16080860182610c50565b508091505092915050565b60006020820190508181036000830152610cf68184610c5f565b905092915050565b60006020820190508181036000830152610d188184610961565b905092915050565b7f4e487b7100000000000000000000000000000000000000000000000000000000600052602260045260246000fd5b60006002820490506001821680610d6757607f821691505b602082108103610d7a57610d79610d20565b5b50919050565b600081905092915050565b6000610d978385610d80565b9350610da4838584610853565b82840190509392505050565b6000610dbd828486610d8b565b91508190509392505050565b60008190508160005260206000209050919050565b60006020601f8301049050919050565b600082821b905092915050565b600060088302610e2b7fffffffffffffffffffffffffffffffffffffffffffffffffffffffffffffffff82610dee565b610e358683610dee565b95508019841693508086168417925050509392505050565b6000819050919050565b6000610e72610e6d610e688461099a565b610e4d565b61099a565b9050919050565b6000819050919050565b610e8c83610e57565b610ea0610e9882610e79565b848454610dfb565b825550505050565b600090565b610eb5610ea8565b610ec0818484610e83565b505050565b5b81811015610ee457610ed9600082610ead565b600181019050610ec6565b5050565b601f821115610f2957610efa81610dc9565b610f0384610dde565b81016020851015610f12578190505b610f26610f1e85610dde565b830182610ec5565b50505b505050565b600082821c905092915050565b6000610f4c60001984600802610f2e565b1980831691505092915050565b6000610f658383610f3b565b9150826002028217905092915050565b610f7e8261091b565b67ffffffffffffffff811115610f9757610f966107a7565b5b610fa18254610d4f565b610fac828285610ee8565b600060209050601f831160018114610fdf5760008415610fcd578287015190505b610fd78582610f59565b86555061103f565b601f198416610fed86610dc9565b60005b8281101561101557848901518255600182019150602085019450602081019050610ff0565b86831015611032578489015161102e601f891682610f3b565b8355505b6001600288020188555050505b505050505050565b60006110528261091b565b61105c8185610d80565b935061106c818560208601610937565b80840191505092915050565b60006110848284611047565b91508190509291505056fea26469706673582212204e7c3a8a453961ed511c58efcb586358d13ea3f544b974701ce7750b9f7f3bcf64736f6c63430008180033",
  "linkReferences": {},
  "deployedLinkReferences": {}
}