{
  "_format": "hh-sol-artifact-1",
  "contractName": "PT",
  "sourceName": "contracts/PT.sol",
  "contractAddress": "0x682CF84347BB6c61aB5950c7dC920BAC03D8e8cb",
  "abi": [
    {
      "inputs": [
        {
          "internalType": "string",
          "name": "id",
          "type": "string"
        },
        {
          "internalType": "string",
          "name": "_name",
          "type": "string"
        },
        {
          "internalType": "uint256",
          "name": "_bought_weight",
          "type": "uint256"
        },
        {
          "internalType": "uint256",
          "name": "_sold_weight",
          "type": "uint256"
        },
        {
          "internalType": "uint256",
          "name": "price",
          "type": "uint256"
        }
      ],
      "name": "addProductByFarmer",
      "outputs": [],
      "stateMutability": "nonpayable",
      "type": "function"
    },
    {
      "inputs": [
        {
          "internalType": "string",
          "name": "_id",
          "type": "string"
        },
        {
          "internalType": "uint256",
          "name": "weight_to_buy",
          "type": "uint256"
        },
        {
          "internalType": "uint256",
          "name": "price",
          "type": "uint256"
        },
        {
          "internalType": "string",
          "name": "_prev",
          "type": "string"
        }
      ],
      "name": "addProductByTrader",
      "outputs": [],
      "stateMutability": "nonpayable",
      "type": "function"
    },
    {
      "inputs": [],
      "name": "getAllProducts",
      "outputs": [
        {
          "components": [
            {
              "internalType": "string",
              "name": "name",
              "type": "string"
            },
            {
              "internalType": "uint256",
              "name": "bought_weight",
              "type": "uint256"
            },
            {
              "internalType": "uint256",
              "name": "sold_weight",
              "type": "uint256"
            },
            {
              "internalType": "uint256",
              "name": "price",
              "type": "uint256"
            },
            {
              "internalType": "string",
              "name": "prev",
              "type": "string"
            },
            {
              "internalType": "bool",
              "name": "isConsumed",
              "type": "bool"
            }
          ],
          "internalType": "struct PT.Product[]",
          "name": "",
          "type": "tuple[]"
        }
      ],
      "stateMutability": "view",
      "type": "function"
    },
    {
      "inputs": [
        {
          "internalType": "string",
          "name": "_id",
          "type": "string"
        }
      ],
      "name": "getProduct",
      "outputs": [
        {
          "components": [
            {
              "internalType": "string",
              "name": "name",
              "type": "string"
            },
            {
              "internalType": "uint256",
              "name": "bought_weight",
              "type": "uint256"
            },
            {
              "internalType": "uint256",
              "name": "sold_weight",
              "type": "uint256"
            },
            {
              "internalType": "uint256",
              "name": "price",
              "type": "uint256"
            },
            {
              "internalType": "string",
              "name": "prev",
              "type": "string"
            },
            {
              "internalType": "bool",
              "name": "isConsumed",
              "type": "bool"
            }
          ],
          "internalType": "struct PT.Product",
          "name": "",
          "type": "tuple"
        }
      ],
      "stateMutability": "view",
      "type": "function"
    },
    {
      "inputs": [
        {
          "internalType": "uint256",
          "name": "",
          "type": "uint256"
        }
      ],
      "name": "list",
      "outputs": [
        {
          "internalType": "string",
          "name": "",
          "type": "string"
        }
      ],
      "stateMutability": "view",
      "type": "function"
    },
    {
      "inputs": [
        {
          "internalType": "string",
          "name": "",
          "type": "string"
        }
      ],
      "name": "transactions",
      "outputs": [
        {
          "internalType": "string",
          "name": "name",
          "type": "string"
        },
        {
          "internalType": "uint256",
          "name": "bought_weight",
          "type": "uint256"
        },
        {
          "internalType": "uint256",
          "name": "sold_weight",
          "type": "uint256"
        },
        {
          "internalType": "uint256",
          "name": "price",
          "type": "uint256"
        },
        {
          "internalType": "string",
          "name": "prev",
          "type": "string"
        },
        {
          "internalType": "bool",
          "name": "isConsumed",
          "type": "bool"
        }
      ],
      "stateMutability": "view",
      "type": "function"
    }
  ],
  "bytecode": "0x608060405234801561001057600080fd5b5061176f806100206000396000f3fe608060405234801561001057600080fd5b50600436106100625760003560e01c8063022236f41461006757806302ee3a521461009c5780634110774a146100ba57806368111cce146100d657806380c9419e1461010657806398b7b8e914610136575b600080fd5b610081600480360381019061007c9190610bef565b610152565b60405161009396959493929190610ceb565b60405180910390f35b6100a46102c1565b6040516100b19190610f14565b60405180910390f35b6100d460048036038101906100cf9190610fc2565b610506565b005b6100f060048036038101906100eb9190610bef565b6106bf565b6040516100fd91906110f9565b60405180910390f35b610120600480360381019061011b919061111b565b610854565b60405161012d9190611148565b60405180910390f35b610150600480360381019061014b919061116a565b610900565b005b60008180516020810182018051848252602083016020850120818352809550505050505060009150905080600001805461018b90611255565b80601f01602080910402602001604051908101604052809291908181526020018280546101b790611255565b80156102045780601f106101d957610100808354040283529160200191610204565b820191906000526020600020905b8154815290600101906020018083116101e757829003601f168201915b50505050509080600101549080600201549080600301549080600401805461022b90611255565b80601f016020809104026020016040519081016040528092919081815260200182805461025790611255565b80156102a45780601f10610279576101008083540402835291602001916102a4565b820191906000526020600020905b81548152906001019060200180831161028757829003601f168201915b5050505050908060050160009054906101000a900460ff16905086565b6060600060018054905067ffffffffffffffff8111156102e4576102e3610ac4565b5b60405190808252806020026020018201604052801561031d57816020015b61030a610a5d565b8152602001906001900390816103025790505b50905060005b6001805490508110156104fe5760006001828154811061034657610345611286565b5b9060005260206000200160405161035d9190611358565b90815260200160405180910390206040518060c001604052908160008201805461038690611255565b80601f01602080910402602001604051908101604052809291908181526020018280546103b290611255565b80156103ff5780601f106103d4576101008083540402835291602001916103ff565b820191906000526020600020905b8154815290600101906020018083116103e257829003601f168201915b5050505050815260200160018201548152602001600282015481526020016003820154815260200160048201805461043690611255565b80601f016020809104026020016040519081016040528092919081815260200182805461046290611255565b80156104af5780601f10610484576101008083540402835291602001916104af565b820191906000526020600020905b81548152906001019060200180831161049257829003601f168201915b505050505081526020016005820160009054906101000a900460ff1615151515815250508282815181106104e6576104e5611286565b5b60200260200101819052508080600101915050610323565b508091505090565b600061055583838080601f016020809104026020016040519081016040528093929190818152602001838380828437600081840152601f19601f820116905080830192505050505050506106bf565b905060008582602001510361056957600190505b60006040518060c00160405280846000015181526020018460200151815260200188815260200187815260200186868080601f016020809104026020016040519081016040528093929190818152602001838380828437600081840152601f19601f82011690508083019250505050505050815260200183151581525090508060008a8a6040516105fb929190611394565b9081526020016040518091039020600082015181600001908161061e9190611544565b5060208201518160010155604082015181600201556060820151816003015560808201518160040190816106529190611544565b5060a08201518160050160006101000a81548160ff02191690831515021790555090505060018989909180600181540180825580915050600190039060005260206000200160009091929091929091929091925091826106b3929190611621565b50505050505050505050565b6106c7610a5d565b6000826040516106d79190611722565b90815260200160405180910390206040518060c001604052908160008201805461070090611255565b80601f016020809104026020016040519081016040528092919081815260200182805461072c90611255565b80156107795780601f1061074e57610100808354040283529160200191610779565b820191906000526020600020905b81548152906001019060200180831161075c57829003601f168201915b505050505081526020016001820154815260200160028201548152602001600382015481526020016004820180546107b090611255565b80601f01602080910402602001604051908101604052809291908181526020018280546107dc90611255565b80156108295780601f106107fe57610100808354040283529160200191610829565b820191906000526020600020905b81548152906001019060200180831161080c57829003601f168201915b505050505081526020016005820160009054906101000a900460ff1615151515815250509050919050565b6001818154811061086457600080fd5b90600052602060002001600091509050805461087f90611255565b80601f01602080910402602001604051908101604052809291908181526020018280546108ab90611255565b80156108f85780601f106108cd576101008083540402835291602001916108f8565b820191906000526020600020905b8154815290600101906020018083116108db57829003601f168201915b505050505081565b60006040518060c0016040528087878080601f016020809104026020016040519081016040528093929190818152602001838380828437600081840152601f19601f820116905080830192505050505050508152602001858152602001848152602001838152602001604051806020016040528060008152508152602001600015158152509050806000898960405161099a929190611394565b908152602001604051809103902060008201518160000190816109bd9190611544565b5060208201518160010155604082015181600201556060820151816003015560808201518160040190816109f19190611544565b5060a08201518160050160006101000a81548160ff0219169083151502179055509050506001888890918060018154018082558091505060019003906000526020600020016000909192909192909192909192509182610a52929190611621565b505050505050505050565b6040518060c0016040528060608152602001600081526020016000815260200160008152602001606081526020016000151581525090565b6000604051905090565b600080fd5b600080fd5b600080fd5b600080fd5b6000601f19601f8301169050919050565b7f4e487b7100000000000000000000000000000000000000000000000000000000600052604160045260246000fd5b610afc82610ab3565b810181811067ffffffffffffffff82111715610b1b57610b1a610ac4565b5b80604052505050565b6000610b2e610a95565b9050610b3a8282610af3565b919050565b600067ffffffffffffffff821115610b5a57610b59610ac4565b5b610b6382610ab3565b9050602081019050919050565b82818337600083830152505050565b6000610b92610b8d84610b3f565b610b24565b905082815260208101848484011115610bae57610bad610aae565b5b610bb9848285610b70565b509392505050565b600082601f830112610bd657610bd5610aa9565b5b8135610be6848260208601610b7f565b91505092915050565b600060208284031215610c0557610c04610a9f565b5b600082013567ffffffffffffffff811115610c2357610c22610aa4565b5b610c2f84828501610bc1565b91505092915050565b600081519050919050565b600082825260208201905092915050565b60005b83811015610c72578082015181840152602081019050610c57565b60008484015250505050565b6000610c8982610c38565b610c938185610c43565b9350610ca3818560208601610c54565b610cac81610ab3565b840191505092915050565b6000819050919050565b610cca81610cb7565b82525050565b60008115159050919050565b610ce581610cd0565b82525050565b600060c0820190508181036000830152610d058189610c7e565b9050610d146020830188610cc1565b610d216040830187610cc1565b610d2e6060830186610cc1565b8181036080830152610d408185610c7e565b9050610d4f60a0830184610cdc565b979650505050505050565b600081519050919050565b600082825260208201905092915050565b6000819050602082019050919050565b600082825260208201905092915050565b6000610da282610c38565b610dac8185610d86565b9350610dbc818560208601610c54565b610dc581610ab3565b840191505092915050565b610dd981610cb7565b82525050565b610de881610cd0565b82525050565b600060c0830160008301518482036000860152610e0b8282610d97565b9150506020830151610e206020860182610dd0565b506040830151610e336040860182610dd0565b506060830151610e466060860182610dd0565b5060808301518482036080860152610e5e8282610d97565b91505060a0830151610e7360a0860182610ddf565b508091505092915050565b6000610e8a8383610dee565b905092915050565b6000602082019050919050565b6000610eaa82610d5a565b610eb48185610d65565b935083602082028501610ec685610d76565b8060005b85811015610f025784840389528151610ee38582610e7e565b9450610eee83610e92565b925060208a01995050600181019050610eca565b50829750879550505050505092915050565b60006020820190508181036000830152610f2e8184610e9f565b905092915050565b600080fd5b600080fd5b60008083601f840112610f5657610f55610aa9565b5b8235905067ffffffffffffffff811115610f7357610f72610f36565b5b602083019150836001820283011115610f8f57610f8e610f3b565b5b9250929050565b610f9f81610cb7565b8114610faa57600080fd5b50565b600081359050610fbc81610f96565b92915050565b60008060008060008060808789031215610fdf57610fde610a9f565b5b600087013567ffffffffffffffff811115610ffd57610ffc610aa4565b5b61100989828a01610f40565b9650965050602061101c89828a01610fad565b945050604061102d89828a01610fad565b935050606087013567ffffffffffffffff81111561104e5761104d610aa4565b5b61105a89828a01610f40565b92509250509295509295509295565b600060c08301600083015184820360008601526110868282610d97565b915050602083015161109b6020860182610dd0565b5060408301516110ae6040860182610dd0565b5060608301516110c16060860182610dd0565b50608083015184820360808601526110d98282610d97565b91505060a08301516110ee60a0860182610ddf565b508091505092915050565b600060208201905081810360008301526111138184611069565b905092915050565b60006020828403121561113157611130610a9f565b5b600061113f84828501610fad565b91505092915050565b600060208201905081810360008301526111628184610c7e565b905092915050565b600080600080600080600060a0888a03121561118957611188610a9f565b5b600088013567ffffffffffffffff8111156111a7576111a6610aa4565b5b6111b38a828b01610f40565b9750975050602088013567ffffffffffffffff8111156111d6576111d5610aa4565b5b6111e28a828b01610f40565b955095505060406111f58a828b01610fad565b93505060606112068a828b01610fad565b92505060806112178a828b01610fad565b91505092959891949750929550565b7f4e487b7100000000000000000000000000000000000000000000000000000000600052602260045260246000fd5b6000600282049050600182168061126d57607f821691505b6020821081036112805761127f611226565b5b50919050565b7f4e487b7100000000000000000000000000000000000000000000000000000000600052603260045260246000fd5b600081905092915050565b60008190508160005260206000209050919050565b600081546112e281611255565b6112ec81866112b5565b94506001821660008114611307576001811461131c5761134f565b60ff198316865281151582028601935061134f565b611325856112c0565b60005b8381101561134757815481890152600182019150602081019050611328565b838801955050505b50505092915050565b600061136482846112d5565b915081905092915050565b600061137b83856112b5565b9350611388838584610b70565b82840190509392505050565b60006113a182848661136f565b91508190509392505050565b60006020601f8301049050919050565b600082821b905092915050565b6000600883026113fa7fffffffffffffffffffffffffffffffffffffffffffffffffffffffffffffffff826113bd565b61140486836113bd565b95508019841693508086168417925050509392505050565b6000819050919050565b600061144161143c61143784610cb7565b61141c565b610cb7565b9050919050565b6000819050919050565b61145b83611426565b61146f61146782611448565b8484546113ca565b825550505050565b600090565b611484611477565b61148f818484611452565b505050565b5b818110156114b3576114a860008261147c565b600181019050611495565b5050565b601f8211156114f8576114c9816112c0565b6114d2846113ad565b810160208510156114e1578190505b6114f56114ed856113ad565b830182611494565b50505b505050565b600082821c905092915050565b600061151b600019846008026114fd565b1980831691505092915050565b6000611534838361150a565b9150826002028217905092915050565b61154d82610c38565b67ffffffffffffffff81111561156657611565610ac4565b5b6115708254611255565b61157b8282856114b7565b600060209050601f8311600181146115ae576000841561159c578287015190505b6115a68582611528565b86555061160e565b601f1984166115bc866112c0565b60005b828110156115e4578489015182556001820191506020850194506020810190506115bf565b8683101561160157848901516115fd601f89168261150a565b8355505b6001600288020188555050505b505050505050565b600082905092915050565b61162b8383611616565b67ffffffffffffffff81111561164457611643610ac4565b5b61164e8254611255565b6116598282856114b7565b6000601f8311600181146116885760008415611676578287013590505b6116808582611528565b8655506116e8565b601f198416611696866112c0565b60005b828110156116be57848901358255600182019150602085019450602081019050611699565b868310156116db57848901356116d7601f89168261150a565b8355505b6001600288020188555050505b50505050505050565b60006116fc82610c38565b61170681856112b5565b9350611716818560208601610c54565b80840191505092915050565b600061172e82846116f1565b91508190509291505056fea26469706673582212205be04b2ff8a80dbf56227f9dc39170edbcd98d1008d2a5b5038a4264ae1d725b64736f6c63430008180033",
  "linkReferences": {},
  "deployedLinkReferences": {}
}