{
  "contractName": "PT",
  "contractAddress": "0xc3323Bb33222868FAc43F493FD57437aF78Ed7F5",
  "abi": [
    {
      "inputs": [
        {
          "internalType": "uint256",
          "name": "",
          "type": "uint256"
        }
      ],
      "name": "list",
      "outputs": [
        {
          "internalType": "string",
          "name": "",
          "type": "string"
        }
      ],
      "stateMutability": "view",
      "type": "function",
      "constant": true
    },
    {
      "inputs": [
        {
          "internalType": "string",
          "name": "",
          "type": "string"
        }
      ],
      "name": "transactions",
      "outputs": [
        {
          "internalType": "string",
          "name": "prod_id",
          "type": "string"
        },
        {
          "internalType": "string",
          "name": "name",
          "type": "string"
        },
        {
          "internalType": "string",
          "name": "fileUrl",
          "type": "string"
        },
        {
          "internalType": "string",
          "name": "date",
          "type": "string"
        },
        {
          "internalType": "uint256",
          "name": "bought_weight",
          "type": "uint256"
        },
        {
          "internalType": "address",
          "name": "seller",
          "type": "address"
        },
        {
          "internalType": "uint256",
          "name": "price",
          "type": "uint256"
        },
        {
          "internalType": "string",
          "name": "prev",
          "type": "string"
        },
        {
          "internalType": "bool",
          "name": "isConsumed",
          "type": "bool"
        }
      ],
      "stateMutability": "view",
      "type": "function",
      "constant": true
    },
    {
      "inputs": [
        {
          "internalType": "string",
          "name": "id",
          "type": "string"
        },
        {
          "internalType": "string",
          "name": "_name",
          "type": "string"
        },
        {
          "internalType": "string",
          "name": "_date",
          "type": "string"
        },
        {
          "internalType": "uint256",
          "name": "_bought_weight",
          "type": "uint256"
        },
        {
          "internalType": "uint256",
          "name": "price",
          "type": "uint256"
        },
        {
          "internalType": "string",
          "name": "fileUrl",
          "type": "string"
        }
      ],
      "name": "addProductByFarmer",
      "outputs": [],
      "stateMutability": "nonpayable",
      "type": "function"
    },
    {
      "inputs": [
        {
          "internalType": "string",
          "name": "_id",
          "type": "string"
        },
        {
          "internalType": "string",
          "name": "_date",
          "type": "string"
        },
        {
          "internalType": "uint256",
          "name": "weight_to_buy",
          "type": "uint256"
        },
        {
          "internalType": "uint256",
          "name": "price",
          "type": "uint256"
        },
        {
          "internalType": "string",
          "name": "_prev",
          "type": "string"
        }
      ],
      "name": "addProductByTrader",
      "outputs": [],
      "stateMutability": "nonpayable",
      "type": "function"
    },
    {
      "inputs": [
        {
          "internalType": "string",
          "name": "_prod_id",
          "type": "string"
        }
      ],
      "name": "consumeProduct",
      "outputs": [],
      "stateMutability": "nonpayable",
      "type": "function"
    },
    {
      "inputs": [
        {
          "internalType": "string",
          "name": "_id",
          "type": "string"
        }
      ],
      "name": "getProduct",
      "outputs": [
        {
          "components": [
            {
              "internalType": "string",
              "name": "prod_id",
              "type": "string"
            },
            {
              "internalType": "string",
              "name": "name",
              "type": "string"
            },
            {
              "internalType": "string",
              "name": "fileUrl",
              "type": "string"
            },
            {
              "internalType": "string",
              "name": "date",
              "type": "string"
            },
            {
              "internalType": "uint256",
              "name": "bought_weight",
              "type": "uint256"
            },
            {
              "internalType": "address",
              "name": "seller",
              "type": "address"
            },
            {
              "internalType": "uint256",
              "name": "price",
              "type": "uint256"
            },
            {
              "internalType": "string",
              "name": "prev",
              "type": "string"
            },
            {
              "internalType": "bool",
              "name": "isConsumed",
              "type": "bool"
            }
          ],
          "internalType": "struct PT.Product",
          "name": "",
          "type": "tuple"
        }
      ],
      "stateMutability": "view",
      "type": "function",
      "constant": true
    },
    {
      "inputs": [],
      "name": "getAllProducts",
      "outputs": [
        {
          "components": [
            {
              "internalType": "string",
              "name": "prod_id",
              "type": "string"
            },
            {
              "internalType": "string",
              "name": "name",
              "type": "string"
            },
            {
              "internalType": "string",
              "name": "fileUrl",
              "type": "string"
            },
            {
              "internalType": "string",
              "name": "date",
              "type": "string"
            },
            {
              "internalType": "uint256",
              "name": "bought_weight",
              "type": "uint256"
            },
            {
              "internalType": "address",
              "name": "seller",
              "type": "address"
            },
            {
              "internalType": "uint256",
              "name": "price",
              "type": "uint256"
            },
            {
              "internalType": "string",
              "name": "prev",
              "type": "string"
            },
            {
              "internalType": "bool",
              "name": "isConsumed",
              "type": "bool"
            }
          ],
          "internalType": "struct PT.Product[]",
          "name": "",
          "type": "tuple[]"
        }
      ],
      "stateMutability": "view",
      "type": "function",
      "constant": true
    },
    {
      "inputs": [],
      "name": "getSellerProduct",
      "outputs": [
        {
          "components": [
            {
              "internalType": "string",
              "name": "prod_id",
              "type": "string"
            },
            {
              "internalType": "string",
              "name": "name",
              "type": "string"
            },
            {
              "internalType": "string",
              "name": "fileUrl",
              "type": "string"
            },
            {
              "internalType": "string",
              "name": "date",
              "type": "string"
            },
            {
              "internalType": "uint256",
              "name": "bought_weight",
              "type": "uint256"
            },
            {
              "internalType": "address",
              "name": "seller",
              "type": "address"
            },
            {
              "internalType": "uint256",
              "name": "price",
              "type": "uint256"
            },
            {
              "internalType": "string",
              "name": "prev",
              "type": "string"
            },
            {
              "internalType": "bool",
              "name": "isConsumed",
              "type": "bool"
            }
          ],
          "internalType": "struct PT.Product[]",
          "name": "",
          "type": "tuple[]"
        }
      ],
      "stateMutability": "view",
      "type": "function",
      "constant": true
    }
  ],
  "bytecode": "0x608060405234801561001057600080fd5b50612b1d806100206000396000f3fe608060405234801561001057600080fd5b50600436106100885760003560e01c806368111cce1161005b57806368111cce1461011d57806380c9419e1461014d578063e4ac6edf1461017d578063f87ea1fc1461019957610088565b8063022236f41461008d57806302ee3a52146100c557806328a01598146100e35780633550a918146100ff575b600080fd5b6100a760048036038101906100a29190611c9b565b6101b5565b6040516100bc99989796959493929190611dd8565b60405180910390f35b6100cd6104ee565b6040516100da91906120a2565b60405180910390f35b6100fd60048036038101906100f89190612150565b610a1f565b005b610107610edb565b60405161011491906120a2565b60405180910390f35b61013760048036038101906101329190611c9b565b6113cc565b604051610144919061230d565b60405180910390f35b6101676004803603810190610162919061232f565b611764565b604051610174919061235c565b60405180910390f35b6101976004803603810190610192919061237e565b611810565b005b6101b360048036038101906101ae9190611c9b565b611aa0565b005b6000818051602081018201805184825260208301602085012081835280955050505050506000915090508060000180546101ee906124b8565b80601f016020809104026020016040519081016040528092919081815260200182805461021a906124b8565b80156102675780601f1061023c57610100808354040283529160200191610267565b820191906000526020600020905b81548152906001019060200180831161024a57829003601f168201915b50505050509080600101805461027c906124b8565b80601f01602080910402602001604051908101604052809291908181526020018280546102a8906124b8565b80156102f55780601f106102ca576101008083540402835291602001916102f5565b820191906000526020600020905b8154815290600101906020018083116102d857829003601f168201915b50505050509080600201805461030a906124b8565b80601f0160208091040260200160405190810160405280929190818152602001828054610336906124b8565b80156103835780601f1061035857610100808354040283529160200191610383565b820191906000526020600020905b81548152906001019060200180831161036657829003601f168201915b505050505090806003018054610398906124b8565b80601f01602080910402602001604051908101604052809291908181526020018280546103c4906124b8565b80156104115780601f106103e657610100808354040283529160200191610411565b820191906000526020600020905b8154815290600101906020018083116103f457829003601f168201915b5050505050908060040154908060050160009054906101000a900473ffffffffffffffffffffffffffffffffffffffff1690806006015490806007018054610458906124b8565b80601f0160208091040260200160405190810160405280929190818152602001828054610484906124b8565b80156104d15780601f106104a6576101008083540402835291602001916104d1565b820191906000526020600020905b8154815290600101906020018083116104b457829003601f168201915b5050505050908060080160009054906101000a900460ff16905089565b60606000805b60018054905081101561057357600060018281548110610517576105166124e9565b5b9060005260206000200160405161052e91906125bb565b908152602001604051809103902060080160009054906101000a900460ff1661056057818061055c90612601565b9250505b808061056b90612601565b9150506104f4565b5060008167ffffffffffffffff8111156105905761058f611b70565b5b6040519080825280602002602001820160405280156105c957816020015b6105b6611add565b8152602001906001900390816105ae5790505b5090506000915060005b600180549050811015610a16576000600182815481106105f6576105f56124e9565b5b9060005260206000200160405161060d91906125bb565b908152602001604051809103902060080160009054906101000a900460ff16610a0357600060018281548110610646576106456124e9565b5b9060005260206000200160405161065d91906125bb565b908152602001604051809103902060405180610120016040529081600082018054610687906124b8565b80601f01602080910402602001604051908101604052809291908181526020018280546106b3906124b8565b80156107005780601f106106d557610100808354040283529160200191610700565b820191906000526020600020905b8154815290600101906020018083116106e357829003601f168201915b50505050508152602001600182018054610719906124b8565b80601f0160208091040260200160405190810160405280929190818152602001828054610745906124b8565b80156107925780601f1061076757610100808354040283529160200191610792565b820191906000526020600020905b81548152906001019060200180831161077557829003601f168201915b505050505081526020016002820180546107ab906124b8565b80601f01602080910402602001604051908101604052809291908181526020018280546107d7906124b8565b80156108245780601f106107f957610100808354040283529160200191610824565b820191906000526020600020905b81548152906001019060200180831161080757829003601f168201915b5050505050815260200160038201805461083d906124b8565b80601f0160208091040260200160405190810160405280929190818152602001828054610869906124b8565b80156108b65780601f1061088b576101008083540402835291602001916108b6565b820191906000526020600020905b81548152906001019060200180831161089957829003601f168201915b50505050508152602001600482015481526020016005820160009054906101000a900473ffffffffffffffffffffffffffffffffffffffff1673ffffffffffffffffffffffffffffffffffffffff1673ffffffffffffffffffffffffffffffffffffffff16815260200160068201548152602001600782018054610939906124b8565b80601f0160208091040260200160405190810160405280929190818152602001828054610965906124b8565b80156109b25780601f10610987576101008083540402835291602001916109b2565b820191906000526020600020905b81548152906001019060200180831161099557829003601f168201915b505050505081526020016008820160009054906101000a900460ff1615151515815250508284815181106109e9576109e86124e9565b5b602002602001018190525082806109ff90612601565b9350505b8080610a0e90612601565b9150506105d3565b50809250505090565b6000610a6e83838080601f016020809104026020016040519081016040528093929190818152602001838380828437600081840152601f19601f820116905080830192505050505050506113cc565b9050600081602001515111610ab8576040517f08c379a0000000000000000000000000000000000000000000000000000000008152600401610aaf90612695565b60405180910390fd5b8481608001511015610ac957600080fd5b84816080015103610b3d576000808484604051610ae79291906126da565b908152602001604051809103902060040181905550600160008484604051610b109291906126da565b908152602001604051809103902060080160006101000a81548160ff021916908315150217905550610bab565b8460008484604051610b509291906126da565b90815260200160405180910390206004016000828254610b7091906126f3565b92505081905550868660008585604051610b8b9291906126da565b90815260200160405180910390206003019182610ba99291906128c9565b505b60006040518061012001604052808b8b8080601f016020809104026020016040519081016040528093929190818152602001838380828437600081840152601f19601f8201169050808301925050505050505081526020018360200151815260200189898080601f016020809104026020016040519081016040528093929190818152602001838380828437600081840152601f19601f82011690508083019250505050505050815260200160008686604051610c699291906126da565b90815260200160405180910390206002018054610c85906124b8565b80601f0160208091040260200160405190810160405280929190818152602001828054610cb1906124b8565b8015610cfe5780601f10610cd357610100808354040283529160200191610cfe565b820191906000526020600020905b815481529060010190602001808311610ce157829003601f168201915b505050505081526020018781526020013373ffffffffffffffffffffffffffffffffffffffff16815260200186815260200185858080601f016020809104026020016040519081016040528093929190818152602001838380828437600081840152601f19601f8201169050808301925050505050505081526020016000151581525090508060008b8b604051610d969291906126da565b90815260200160405180910390206000820151816000019081610db99190612999565b506020820151816001019081610dcf9190612999565b506040820151816002019081610de59190612999565b506060820151816003019081610dfb9190612999565b506080820151816004015560a08201518160050160006101000a81548173ffffffffffffffffffffffffffffffffffffffff021916908373ffffffffffffffffffffffffffffffffffffffff16021790555060c0820151816006015560e0820151816007019081610e6c9190612999565b506101008201518160080160006101000a81548160ff02191690831515021790555090505060018a8a90918060018154018082558091505060019003906000526020600020016000909192909192909192909192509182610ece9291906128c9565b5050505050505050505050565b6060600060018054905067ffffffffffffffff811115610efe57610efd611b70565b5b604051908082528060200260200182016040528015610f3757816020015b610f24611add565b815260200190600190039081610f1c5790505b5090506000805b6001805490508110156113c3573373ffffffffffffffffffffffffffffffffffffffff16600060018381548110610f7857610f776124e9565b5b90600052602060002001604051610f8f91906125bb565b908152602001604051809103902060050160009054906101000a900473ffffffffffffffffffffffffffffffffffffffff1673ffffffffffffffffffffffffffffffffffffffff16036113b057600060018281548110610ff257610ff16124e9565b5b9060005260206000200160405161100991906125bb565b908152602001604051809103902060405180610120016040529081600082018054611033906124b8565b80601f016020809104026020016040519081016040528092919081815260200182805461105f906124b8565b80156110ac5780601f10611081576101008083540402835291602001916110ac565b820191906000526020600020905b81548152906001019060200180831161108f57829003601f168201915b505050505081526020016001820180546110c5906124b8565b80601f01602080910402602001604051908101604052809291908181526020018280546110f1906124b8565b801561113e5780601f106111135761010080835404028352916020019161113e565b820191906000526020600020905b81548152906001019060200180831161112157829003601f168201915b50505050508152602001600282018054611157906124b8565b80601f0160208091040260200160405190810160405280929190818152602001828054611183906124b8565b80156111d05780601f106111a5576101008083540402835291602001916111d0565b820191906000526020600020905b8154815290600101906020018083116111b357829003601f168201915b505050505081526020016003820180546111e9906124b8565b80601f0160208091040260200160405190810160405280929190818152602001828054611215906124b8565b80156112625780601f1061123757610100808354040283529160200191611262565b820191906000526020600020905b81548152906001019060200180831161124557829003601f168201915b50505050508152602001600482015481526020016005820160009054906101000a900473ffffffffffffffffffffffffffffffffffffffff1673ffffffffffffffffffffffffffffffffffffffff1673ffffffffffffffffffffffffffffffffffffffff168152602001600682015481526020016007820180546112e5906124b8565b80601f0160208091040260200160405190810160405280929190818152602001828054611311906124b8565b801561135e5780601f106113335761010080835404028352916020019161135e565b820191906000526020600020905b81548152906001019060200180831161134157829003601f168201915b505050505081526020016008820160009054906101000a900460ff161515151581525050838381518110611395576113946124e9565b5b60200260200101819052506001826113ad9190612a6b565b91505b80806113bb90612601565b915050610f3e565b50819250505090565b6113d4611add565b6000826040516113e49190612ad0565b90815260200160405180910390206040518061012001604052908160008201805461140e906124b8565b80601f016020809104026020016040519081016040528092919081815260200182805461143a906124b8565b80156114875780601f1061145c57610100808354040283529160200191611487565b820191906000526020600020905b81548152906001019060200180831161146a57829003601f168201915b505050505081526020016001820180546114a0906124b8565b80601f01602080910402602001604051908101604052809291908181526020018280546114cc906124b8565b80156115195780601f106114ee57610100808354040283529160200191611519565b820191906000526020600020905b8154815290600101906020018083116114fc57829003601f168201915b50505050508152602001600282018054611532906124b8565b80601f016020809104026020016040519081016040528092919081815260200182805461155e906124b8565b80156115ab5780601f10611580576101008083540402835291602001916115ab565b820191906000526020600020905b81548152906001019060200180831161158e57829003601f168201915b505050505081526020016003820180546115c4906124b8565b80601f01602080910402602001604051908101604052809291908181526020018280546115f0906124b8565b801561163d5780601f106116125761010080835404028352916020019161163d565b820191906000526020600020905b81548152906001019060200180831161162057829003601f168201915b50505050508152602001600482015481526020016005820160009054906101000a900473ffffffffffffffffffffffffffffffffffffffff1673ffffffffffffffffffffffffffffffffffffffff1673ffffffffffffffffffffffffffffffffffffffff168152602001600682015481526020016007820180546116c0906124b8565b80601f01602080910402602001604051908101604052809291908181526020018280546116ec906124b8565b80156117395780601f1061170e57610100808354040283529160200191611739565b820191906000526020600020905b81548152906001019060200180831161171c57829003601f168201915b505050505081526020016008820160009054906101000a900460ff1615151515815250509050919050565b6001818154811061177457600080fd5b90600052602060002001600091509050805461178f906124b8565b80601f01602080910402602001604051908101604052809291908181526020018280546117bb906124b8565b80156118085780601f106117dd57610100808354040283529160200191611808565b820191906000526020600020905b8154815290600101906020018083116117eb57829003601f168201915b505050505081565b60006040518061012001604052808b8b8080601f016020809104026020016040519081016040528093929190818152602001838380828437600081840152601f19601f82011690508083019250505050505050815260200189898080601f016020809104026020016040519081016040528093929190818152602001838380828437600081840152601f19601f82011690508083019250505050505050815260200187878080601f016020809104026020016040519081016040528093929190818152602001838380828437600081840152601f19601f8201169050808301925050505050505081526020018381526020018581526020013373ffffffffffffffffffffffffffffffffffffffff1681526020018481526020016040518060200160405280600081525081526020016000151581525090508060008b8b60405161195b9291906126da565b9081526020016040518091039020600082015181600001908161197e9190612999565b5060208201518160010190816119949190612999565b5060408201518160020190816119aa9190612999565b5060608201518160030190816119c09190612999565b506080820151816004015560a08201518160050160006101000a81548173ffffffffffffffffffffffffffffffffffffffff021916908373ffffffffffffffffffffffffffffffffffffffff16021790555060c0820151816006015560e0820151816007019081611a319190612999565b506101008201518160080160006101000a81548160ff02191690831515021790555090505060018a8a90918060018154018082558091505060019003906000526020600020016000909192909192909192909192509182611a939291906128c9565b5050505050505050505050565b6001600082604051611ab29190612ad0565b908152602001604051809103902060080160006101000a81548160ff02191690831515021790555050565b6040518061012001604052806060815260200160608152602001606081526020016060815260200160008152602001600073ffffffffffffffffffffffffffffffffffffffff16815260200160008152602001606081526020016000151581525090565b6000604051905090565b600080fd5b600080fd5b600080fd5b600080fd5b6000601f19601f8301169050919050565b7f4e487b7100000000000000000000000000000000000000000000000000000000600052604160045260246000fd5b611ba882611b5f565b810181811067ffffffffffffffff82111715611bc757611bc6611b70565b5b80604052505050565b6000611bda611b41565b9050611be68282611b9f565b919050565b600067ffffffffffffffff821115611c0657611c05611b70565b5b611c0f82611b5f565b9050602081019050919050565b82818337600083830152505050565b6000611c3e611c3984611beb565b611bd0565b905082815260208101848484011115611c5a57611c59611b5a565b5b611c65848285611c1c565b509392505050565b600082601f830112611c8257611c81611b55565b5b8135611c92848260208601611c2b565b91505092915050565b600060208284031215611cb157611cb0611b4b565b5b600082013567ffffffffffffffff811115611ccf57611cce611b50565b5b611cdb84828501611c6d565b91505092915050565b600081519050919050565b600082825260208201905092915050565b60005b83811015611d1e578082015181840152602081019050611d03565b60008484015250505050565b6000611d3582611ce4565b611d3f8185611cef565b9350611d4f818560208601611d00565b611d5881611b5f565b840191505092915050565b6000819050919050565b611d7681611d63565b82525050565b600073ffffffffffffffffffffffffffffffffffffffff82169050919050565b6000611da782611d7c565b9050919050565b611db781611d9c565b82525050565b60008115159050919050565b611dd281611dbd565b82525050565b6000610120820190508181036000830152611df3818c611d2a565b90508181036020830152611e07818b611d2a565b90508181036040830152611e1b818a611d2a565b90508181036060830152611e2f8189611d2a565b9050611e3e6080830188611d6d565b611e4b60a0830187611dae565b611e5860c0830186611d6d565b81810360e0830152611e6a8185611d2a565b9050611e7a610100830184611dc9565b9a9950505050505050505050565b600081519050919050565b600082825260208201905092915050565b6000819050602082019050919050565b600082825260208201905092915050565b6000611ed082611ce4565b611eda8185611eb4565b9350611eea818560208601611d00565b611ef381611b5f565b840191505092915050565b611f0781611d63565b82525050565b611f1681611d9c565b82525050565b611f2581611dbd565b82525050565b6000610120830160008301518482036000860152611f498282611ec5565b91505060208301518482036020860152611f638282611ec5565b91505060408301518482036040860152611f7d8282611ec5565b91505060608301518482036060860152611f978282611ec5565b9150506080830151611fac6080860182611efe565b5060a0830151611fbf60a0860182611f0d565b5060c0830151611fd260c0860182611efe565b5060e083015184820360e0860152611fea8282611ec5565b915050610100830151612001610100860182611f1c565b508091505092915050565b60006120188383611f2b565b905092915050565b6000602082019050919050565b600061203882611e88565b6120428185611e93565b93508360208202850161205485611ea4565b8060005b858110156120905784840389528151612071858261200c565b945061207c83612020565b925060208a01995050600181019050612058565b50829750879550505050505092915050565b600060208201905081810360008301526120bc818461202d565b905092915050565b600080fd5b600080fd5b60008083601f8401126120e4576120e3611b55565b5b8235905067ffffffffffffffff811115612101576121006120c4565b5b60208301915083600182028301111561211d5761211c6120c9565b5b9250929050565b61212d81611d63565b811461213857600080fd5b50565b60008135905061214a81612124565b92915050565b60008060008060008060008060a0898b0312156121705761216f611b4b565b5b600089013567ffffffffffffffff81111561218e5761218d611b50565b5b61219a8b828c016120ce565b9850985050602089013567ffffffffffffffff8111156121bd576121bc611b50565b5b6121c98b828c016120ce565b965096505060406121dc8b828c0161213b565b94505060606121ed8b828c0161213b565b935050608089013567ffffffffffffffff81111561220e5761220d611b50565b5b61221a8b828c016120ce565b92509250509295985092959890939650565b600061012083016000830151848203600086015261224a8282611ec5565b915050602083015184820360208601526122648282611ec5565b9150506040830151848203604086015261227e8282611ec5565b915050606083015184820360608601526122988282611ec5565b91505060808301516122ad6080860182611efe565b5060a08301516122c060a0860182611f0d565b5060c08301516122d360c0860182611efe565b5060e083015184820360e08601526122eb8282611ec5565b915050610100830151612302610100860182611f1c565b508091505092915050565b60006020820190508181036000830152612327818461222c565b905092915050565b60006020828403121561234557612344611b4b565b5b60006123538482850161213b565b91505092915050565b600060208201905081810360008301526123768184611d2a565b905092915050565b600080600080600080600080600060c08a8c0312156123a05761239f611b4b565b5b60008a013567ffffffffffffffff8111156123be576123bd611b50565b5b6123ca8c828d016120ce565b995099505060208a013567ffffffffffffffff8111156123ed576123ec611b50565b5b6123f98c828d016120ce565b975097505060408a013567ffffffffffffffff81111561241c5761241b611b50565b5b6124288c828d016120ce565b9550955050606061243b8c828d0161213b565b935050608061244c8c828d0161213b565b92505060a08a013567ffffffffffffffff81111561246d5761246c611b50565b5b6124798c828d01611c6d565b9150509295985092959850929598565b7f4e487b7100000000000000000000000000000000000000000000000000000000600052602260045260246000fd5b600060028204905060018216806124d057607f821691505b6020821081036124e3576124e2612489565b5b50919050565b7f4e487b7100000000000000000000000000000000000000000000000000000000600052603260045260246000fd5b600081905092915050565b60008190508160005260206000209050919050565b60008154612545816124b8565b61254f8186612518565b9450600182166000811461256a576001811461257f576125b2565b60ff19831686528115158202860193506125b2565b61258885612523565b60005b838110156125aa5781548189015260018201915060208101905061258b565b838801955050505b50505092915050565b60006125c78284612538565b915081905092915050565b7f4e487b7100000000000000000000000000000000000000000000000000000000600052601160045260246000fd5b600061260c82611d63565b91507fffffffffffffffffffffffffffffffffffffffffffffffffffffffffffffffff820361263e5761263d6125d2565b5b600182019050919050565b7f50726576696f75732070726f64756374206d7573742065786973740000000000600082015250565b600061267f601b83611cef565b915061268a82612649565b602082019050919050565b600060208201905081810360008301526126ae81612672565b9050919050565b60006126c18385612518565b93506126ce838584611c1c565b82840190509392505050565b60006126e78284866126b5565b91508190509392505050565b60006126fe82611d63565b915061270983611d63565b9250828203905081811115612721576127206125d2565b5b92915050565b600082905092915050565b60006020601f8301049050919050565b600082821b905092915050565b60006008830261277f7fffffffffffffffffffffffffffffffffffffffffffffffffffffffffffffffff82612742565b6127898683612742565b95508019841693508086168417925050509392505050565b6000819050919050565b60006127c66127c16127bc84611d63565b6127a1565b611d63565b9050919050565b6000819050919050565b6127e0836127ab565b6127f46127ec826127cd565b84845461274f565b825550505050565b600090565b6128096127fc565b6128148184846127d7565b505050565b5b818110156128385761282d600082612801565b60018101905061281a565b5050565b601f82111561287d5761284e81612523565b61285784612732565b81016020851015612866578190505b61287a61287285612732565b830182612819565b50505b505050565b600082821c905092915050565b60006128a060001984600802612882565b1980831691505092915050565b60006128b9838361288f565b9150826002028217905092915050565b6128d38383612727565b67ffffffffffffffff8111156128ec576128eb611b70565b5b6128f682546124b8565b61290182828561283c565b6000601f831160018114612930576000841561291e578287013590505b61292885826128ad565b865550612990565b601f19841661293e86612523565b60005b8281101561296657848901358255600182019150602085019450602081019050612941565b86831015612983578489013561297f601f89168261288f565b8355505b6001600288020188555050505b50505050505050565b6129a282611ce4565b67ffffffffffffffff8111156129bb576129ba611b70565b5b6129c582546124b8565b6129d082828561283c565b600060209050601f831160018114612a0357600084156129f1578287015190505b6129fb85826128ad565b865550612a63565b601f198416612a1186612523565b60005b82811015612a3957848901518255600182019150602085019450602081019050612a14565b86831015612a565784890151612a52601f89168261288f565b8355505b6001600288020188555050505b505050505050565b6000612a7682611d63565b9150612a8183611d63565b9250828201905080821115612a9957612a986125d2565b5b92915050565b6000612aaa82611ce4565b612ab48185612518565b9350612ac4818560208601611d00565b80840191505092915050565b6000612adc8284612a9f565b91508190509291505056fea26469706673582212202ddab2064badb4aff879df0769afe1d3d7a2e1c963c6632fb9c943694285cb7864736f6c63430008110033",
  "immutableReferences": {},
  "source": "// SPDX-License-Identifier: MIT\r\npragma solidity >=0.4.22 <0.9.0;\r\n\r\ncontract PT {\r\n    struct Product {\r\n        string prod_id;\r\n        string name;\r\n        string fileUrl;\r\n        string date;\r\n        uint bought_weight;\r\n        address seller;\r\n        // uint sold_weight;\r\n        uint price;\r\n        string prev;\r\n        bool isConsumed;\r\n    }\r\n\r\n    mapping(string => Product) public transactions;\r\n    string[] public list;\r\n\r\n    function addProductByFarmer(\r\n        string calldata id,\r\n        string calldata _name,\r\n        string calldata _date,\r\n        uint _bought_weight,\r\n        // uint _sold_weight,\r\n        uint price,\r\n        string memory fileUrl\r\n    ) public {\r\n        Product memory product = Product(\r\n            id,\r\n            _name,\r\n            _date,\r\n            fileUrl,\r\n            _bought_weight,\r\n            msg.sender,\r\n            // _sold_weight,\r\n            price,\r\n            \"\",\r\n            false\r\n        );\r\n        transactions[id] = product;\r\n        list.push(id);\r\n    }\r\n\r\n    function addProductByTrader(\r\n        string calldata _id,\r\n        string calldata _date,\r\n        uint weight_to_buy,\r\n        uint price,\r\n        string calldata _prev\r\n    ) public {\r\n        Product memory prevProduct = getProduct(_prev);\r\n        require(\r\n            bytes(prevProduct.name).length > 0,\r\n            \"Previous product must exist\"\r\n        );\r\n        require(prevProduct.bought_weight >= weight_to_buy);\r\n        if (prevProduct.bought_weight == weight_to_buy) {\r\n            transactions[_prev].bought_weight = 0;\r\n            transactions[_prev].isConsumed = true;\r\n        } else {\r\n            transactions[_prev].bought_weight -= weight_to_buy;\r\n            transactions[_prev].date = _date;\r\n        }\r\n\r\n        Product memory product = Product(\r\n            _id,\r\n            prevProduct.name,\r\n            // prevProduct.bought_weight,\r\n            _date,\r\n            transactions[_prev].fileUrl,\r\n            weight_to_buy,\r\n            msg.sender,\r\n            price,\r\n            _prev,\r\n            false\r\n        );\r\n\r\n        transactions[_id] = product;\r\n        list.push(_id);\r\n    }\r\n\r\n    function consumeProduct(string memory _prod_id) public {\r\n        transactions[_prod_id].isConsumed = true;\r\n    }\r\n\r\n    function getProduct(\r\n        string memory _id\r\n    ) public view returns (Product memory) {\r\n        return transactions[_id];\r\n        // return products[_id];\r\n    }\r\n\r\n    function getAllProducts() public view returns (Product[] memory) {\r\n        uint j = 0;\r\n        for (uint i = 0; i < list.length; i++) {\r\n            if (!transactions[list[i]].isConsumed) {\r\n                j++;\r\n            }\r\n        }\r\n        Product[] memory output = new Product[](j);\r\n        j = 0;\r\n        for (uint i = 0; i < list.length; i++) {\r\n            if (!transactions[list[i]].isConsumed) {\r\n                output[j] = transactions[list[i]];\r\n                j++;\r\n            }\r\n        }\r\n\r\n        return output;\r\n    }\r\n\r\n    function getSellerProduct() public view returns (Product[] memory) {\r\n        Product[] memory results = new Product[](list.length);\r\n        uint j = 0;\r\n        for (uint i = 0; i < list.length; i++) {\r\n            if (transactions[list[i]].seller == msg.sender) {\r\n                results[j] = transactions[list[i]];\r\n                j = j + 1;\r\n            }\r\n        }\r\n        return results;\r\n    }\r\n}\r\n",
  "sourcePath": "D:\\farmtracelo\\src\\smart-contract\\contracts\\PT.sol",
  "compiler": {
    "name": "solc",
    "version": "0.8.17+commit.8df45f5f.Emscripten.clang"
  },
  "schemaVersion": "3.4.16",
  "updatedAt": "2024-02-25T11:36:40.351Z",
  "networkType": "ethereum",
  "devdoc": {
    "kind": "dev",
    "methods": {},
    "version": 1
  },
  "userdoc": {
    "kind": "user",
    "methods": {},
    "version": 1
  }
}