{
  "contractName": "PT",
  "contractAddress": "0xa52728ca9a763442cBbf1F242AE312c62B4c525D",
  "abi": [
    {
      "inputs": [
        {
          "internalType": "uint256",
          "name": "",
          "type": "uint256"
        }
      ],
      "name": "list",
      "outputs": [
        {
          "internalType": "string",
          "name": "",
          "type": "string"
        }
      ],
      "stateMutability": "view",
      "type": "function",
      "constant": true
    },
    {
      "inputs": [
        {
          "internalType": "string",
          "name": "",
          "type": "string"
        }
      ],
      "name": "transactions",
      "outputs": [
        {
          "internalType": "string",
          "name": "name",
          "type": "string"
        },
        {
          "internalType": "uint256",
          "name": "bought_weight",
          "type": "uint256"
        },
        {
          "internalType": "uint256",
          "name": "sold_weight",
          "type": "uint256"
        },
        {
          "internalType": "uint256",
          "name": "price",
          "type": "uint256"
        },
        {
          "internalType": "string",
          "name": "prev",
          "type": "string"
        },
        {
          "internalType": "bool",
          "name": "isConsumed",
          "type": "bool"
        }
      ],
      "stateMutability": "view",
      "type": "function",
      "constant": true
    },
    {
      "inputs": [
        {
          "internalType": "string",
          "name": "id",
          "type": "string"
        },
        {
          "internalType": "string",
          "name": "_name",
          "type": "string"
        },
        {
          "internalType": "uint256",
          "name": "_bought_weight",
          "type": "uint256"
        },
        {
          "internalType": "uint256",
          "name": "_sold_weight",
          "type": "uint256"
        },
        {
          "internalType": "uint256",
          "name": "price",
          "type": "uint256"
        }
      ],
      "name": "addProductByFarmer",
      "outputs": [],
      "stateMutability": "nonpayable",
      "type": "function"
    },
    {
      "inputs": [
        {
          "internalType": "string",
          "name": "_id",
          "type": "string"
        },
        {
          "internalType": "uint256",
          "name": "weight_to_buy",
          "type": "uint256"
        },
        {
          "internalType": "uint256",
          "name": "price",
          "type": "uint256"
        },
        {
          "internalType": "string",
          "name": "_prev",
          "type": "string"
        }
      ],
      "name": "addProductByTrader",
      "outputs": [],
      "stateMutability": "nonpayable",
      "type": "function"
    },
    {
      "inputs": [
        {
          "internalType": "string",
          "name": "_id",
          "type": "string"
        }
      ],
      "name": "getProduct",
      "outputs": [
        {
          "components": [
            {
              "internalType": "string",
              "name": "name",
              "type": "string"
            },
            {
              "internalType": "uint256",
              "name": "bought_weight",
              "type": "uint256"
            },
            {
              "internalType": "uint256",
              "name": "sold_weight",
              "type": "uint256"
            },
            {
              "internalType": "uint256",
              "name": "price",
              "type": "uint256"
            },
            {
              "internalType": "string",
              "name": "prev",
              "type": "string"
            },
            {
              "internalType": "bool",
              "name": "isConsumed",
              "type": "bool"
            }
          ],
          "internalType": "struct PT.Product",
          "name": "",
          "type": "tuple"
        }
      ],
      "stateMutability": "view",
      "type": "function",
      "constant": true
    },
    {
      "inputs": [],
      "name": "getAllProducts",
      "outputs": [
        {
          "components": [
            {
              "internalType": "string",
              "name": "name",
              "type": "string"
            },
            {
              "internalType": "uint256",
              "name": "bought_weight",
              "type": "uint256"
            },
            {
              "internalType": "uint256",
              "name": "sold_weight",
              "type": "uint256"
            },
            {
              "internalType": "uint256",
              "name": "price",
              "type": "uint256"
            },
            {
              "internalType": "string",
              "name": "prev",
              "type": "string"
            },
            {
              "internalType": "bool",
              "name": "isConsumed",
              "type": "bool"
            }
          ],
          "internalType": "struct PT.Product[]",
          "name": "",
          "type": "tuple[]"
        }
      ],
      "stateMutability": "view",
      "type": "function",
      "constant": true
    }
  ],
  "bytecode": "0x608060405234801561001057600080fd5b506117ec806100206000396000f3fe608060405234801561001057600080fd5b50600436106100625760003560e01c8063022236f41461006757806302ee3a521461009c5780634110774a146100ba57806368111cce146100d657806380c9419e1461010657806398b7b8e914610136575b600080fd5b610081600480360381019061007c9190610bf5565b610152565b60405161009396959493929190610cf1565b60405180910390f35b6100a46102c1565b6040516100b19190610f1a565b60405180910390f35b6100d460048036038101906100cf9190610fc8565b61050c565b005b6100f060048036038101906100eb9190610bf5565b6106c5565b6040516100fd91906110ff565b60405180910390f35b610120600480360381019061011b9190611121565b61085a565b60405161012d919061114e565b60405180910390f35b610150600480360381019061014b9190611170565b610906565b005b60008180516020810182018051848252602083016020850120818352809550505050505060009150905080600001805461018b9061125b565b80601f01602080910402602001604051908101604052809291908181526020018280546101b79061125b565b80156102045780601f106101d957610100808354040283529160200191610204565b820191906000526020600020905b8154815290600101906020018083116101e757829003601f168201915b50505050509080600101549080600201549080600301549080600401805461022b9061125b565b80601f01602080910402602001604051908101604052809291908181526020018280546102579061125b565b80156102a45780601f10610279576101008083540402835291602001916102a4565b820191906000526020600020905b81548152906001019060200180831161028757829003601f168201915b5050505050908060050160009054906101000a900460ff16905086565b6060600060018054905067ffffffffffffffff8111156102e4576102e3610aca565b5b60405190808252806020026020018201604052801561031d57816020015b61030a610a63565b8152602001906001900390816103025790505b50905060005b600180549050811015610504576000600182815481106103465761034561128c565b5b9060005260206000200160405161035d919061135e565b90815260200160405180910390206040518060c00160405290816000820180546103869061125b565b80601f01602080910402602001604051908101604052809291908181526020018280546103b29061125b565b80156103ff5780601f106103d4576101008083540402835291602001916103ff565b820191906000526020600020905b8154815290600101906020018083116103e257829003601f168201915b505050505081526020016001820154815260200160028201548152602001600382015481526020016004820180546104369061125b565b80601f01602080910402602001604051908101604052809291908181526020018280546104629061125b565b80156104af5780601f10610484576101008083540402835291602001916104af565b820191906000526020600020905b81548152906001019060200180831161049257829003601f168201915b505050505081526020016005820160009054906101000a900460ff1615151515815250508282815181106104e6576104e561128c565b5b602002602001018190525080806104fc906113a4565b915050610323565b508091505090565b600061055b83838080601f016020809104026020016040519081016040528093929190818152602001838380828437600081840152601f19601f820116905080830192505050505050506106c5565b905060008582602001510361056f57600190505b60006040518060c00160405280846000015181526020018460200151815260200188815260200187815260200186868080601f016020809104026020016040519081016040528093929190818152602001838380828437600081840152601f19601f82011690508083019250505050505050815260200183151581525090508060008a8a604051610601929190611411565b9081526020016040518091039020600082015181600001908161062491906115c1565b50602082015181600101556040820151816002015560608201518160030155608082015181600401908161065891906115c1565b5060a08201518160050160006101000a81548160ff02191690831515021790555090505060018989909180600181540180825580915050600190039060005260206000200160009091929091929091929091925091826106b992919061169e565b50505050505050505050565b6106cd610a63565b6000826040516106dd919061179f565b90815260200160405180910390206040518060c00160405290816000820180546107069061125b565b80601f01602080910402602001604051908101604052809291908181526020018280546107329061125b565b801561077f5780601f106107545761010080835404028352916020019161077f565b820191906000526020600020905b81548152906001019060200180831161076257829003601f168201915b505050505081526020016001820154815260200160028201548152602001600382015481526020016004820180546107b69061125b565b80601f01602080910402602001604051908101604052809291908181526020018280546107e29061125b565b801561082f5780601f106108045761010080835404028352916020019161082f565b820191906000526020600020905b81548152906001019060200180831161081257829003601f168201915b505050505081526020016005820160009054906101000a900460ff1615151515815250509050919050565b6001818154811061086a57600080fd5b9060005260206000200160009150905080546108859061125b565b80601f01602080910402602001604051908101604052809291908181526020018280546108b19061125b565b80156108fe5780601f106108d3576101008083540402835291602001916108fe565b820191906000526020600020905b8154815290600101906020018083116108e157829003601f168201915b505050505081565b60006040518060c0016040528087878080601f016020809104026020016040519081016040528093929190818152602001838380828437600081840152601f19601f82011690508083019250505050505050815260200185815260200184815260200183815260200160405180602001604052806000815250815260200160001515815250905080600089896040516109a0929190611411565b908152602001604051809103902060008201518160000190816109c391906115c1565b5060208201518160010155604082015181600201556060820151816003015560808201518160040190816109f791906115c1565b5060a08201518160050160006101000a81548160ff0219169083151502179055509050506001888890918060018154018082558091505060019003906000526020600020016000909192909192909192909192509182610a5892919061169e565b505050505050505050565b6040518060c0016040528060608152602001600081526020016000815260200160008152602001606081526020016000151581525090565b6000604051905090565b600080fd5b600080fd5b600080fd5b600080fd5b6000601f19601f8301169050919050565b7f4e487b7100000000000000000000000000000000000000000000000000000000600052604160045260246000fd5b610b0282610ab9565b810181811067ffffffffffffffff82111715610b2157610b20610aca565b5b80604052505050565b6000610b34610a9b565b9050610b408282610af9565b919050565b600067ffffffffffffffff821115610b6057610b5f610aca565b5b610b6982610ab9565b9050602081019050919050565b82818337600083830152505050565b6000610b98610b9384610b45565b610b2a565b905082815260208101848484011115610bb457610bb3610ab4565b5b610bbf848285610b76565b509392505050565b600082601f830112610bdc57610bdb610aaf565b5b8135610bec848260208601610b85565b91505092915050565b600060208284031215610c0b57610c0a610aa5565b5b600082013567ffffffffffffffff811115610c2957610c28610aaa565b5b610c3584828501610bc7565b91505092915050565b600081519050919050565b600082825260208201905092915050565b60005b83811015610c78578082015181840152602081019050610c5d565b60008484015250505050565b6000610c8f82610c3e565b610c998185610c49565b9350610ca9818560208601610c5a565b610cb281610ab9565b840191505092915050565b6000819050919050565b610cd081610cbd565b82525050565b60008115159050919050565b610ceb81610cd6565b82525050565b600060c0820190508181036000830152610d0b8189610c84565b9050610d1a6020830188610cc7565b610d276040830187610cc7565b610d346060830186610cc7565b8181036080830152610d468185610c84565b9050610d5560a0830184610ce2565b979650505050505050565b600081519050919050565b600082825260208201905092915050565b6000819050602082019050919050565b600082825260208201905092915050565b6000610da882610c3e565b610db28185610d8c565b9350610dc2818560208601610c5a565b610dcb81610ab9565b840191505092915050565b610ddf81610cbd565b82525050565b610dee81610cd6565b82525050565b600060c0830160008301518482036000860152610e118282610d9d565b9150506020830151610e266020860182610dd6565b506040830151610e396040860182610dd6565b506060830151610e4c6060860182610dd6565b5060808301518482036080860152610e648282610d9d565b91505060a0830151610e7960a0860182610de5565b508091505092915050565b6000610e908383610df4565b905092915050565b6000602082019050919050565b6000610eb082610d60565b610eba8185610d6b565b935083602082028501610ecc85610d7c565b8060005b85811015610f085784840389528151610ee98582610e84565b9450610ef483610e98565b925060208a01995050600181019050610ed0565b50829750879550505050505092915050565b60006020820190508181036000830152610f348184610ea5565b905092915050565b600080fd5b600080fd5b60008083601f840112610f5c57610f5b610aaf565b5b8235905067ffffffffffffffff811115610f7957610f78610f3c565b5b602083019150836001820283011115610f9557610f94610f41565b5b9250929050565b610fa581610cbd565b8114610fb057600080fd5b50565b600081359050610fc281610f9c565b92915050565b60008060008060008060808789031215610fe557610fe4610aa5565b5b600087013567ffffffffffffffff81111561100357611002610aaa565b5b61100f89828a01610f46565b9650965050602061102289828a01610fb3565b945050604061103389828a01610fb3565b935050606087013567ffffffffffffffff81111561105457611053610aaa565b5b61106089828a01610f46565b92509250509295509295509295565b600060c083016000830151848203600086015261108c8282610d9d565b91505060208301516110a16020860182610dd6565b5060408301516110b46040860182610dd6565b5060608301516110c76060860182610dd6565b50608083015184820360808601526110df8282610d9d565b91505060a08301516110f460a0860182610de5565b508091505092915050565b60006020820190508181036000830152611119818461106f565b905092915050565b60006020828403121561113757611136610aa5565b5b600061114584828501610fb3565b91505092915050565b600060208201905081810360008301526111688184610c84565b905092915050565b600080600080600080600060a0888a03121561118f5761118e610aa5565b5b600088013567ffffffffffffffff8111156111ad576111ac610aaa565b5b6111b98a828b01610f46565b9750975050602088013567ffffffffffffffff8111156111dc576111db610aaa565b5b6111e88a828b01610f46565b955095505060406111fb8a828b01610fb3565b935050606061120c8a828b01610fb3565b925050608061121d8a828b01610fb3565b91505092959891949750929550565b7f4e487b7100000000000000000000000000000000000000000000000000000000600052602260045260246000fd5b6000600282049050600182168061127357607f821691505b6020821081036112865761128561122c565b5b50919050565b7f4e487b7100000000000000000000000000000000000000000000000000000000600052603260045260246000fd5b600081905092915050565b60008190508160005260206000209050919050565b600081546112e88161125b565b6112f281866112bb565b9450600182166000811461130d576001811461132257611355565b60ff1983168652811515820286019350611355565b61132b856112c6565b60005b8381101561134d5781548189015260018201915060208101905061132e565b838801955050505b50505092915050565b600061136a82846112db565b915081905092915050565b7f4e487b7100000000000000000000000000000000000000000000000000000000600052601160045260246000fd5b60006113af82610cbd565b91507fffffffffffffffffffffffffffffffffffffffffffffffffffffffffffffffff82036113e1576113e0611375565b5b600182019050919050565b60006113f883856112bb565b9350611405838584610b76565b82840190509392505050565b600061141e8284866113ec565b91508190509392505050565b60006020601f8301049050919050565b600082821b905092915050565b6000600883026114777fffffffffffffffffffffffffffffffffffffffffffffffffffffffffffffffff8261143a565b611481868361143a565b95508019841693508086168417925050509392505050565b6000819050919050565b60006114be6114b96114b484610cbd565b611499565b610cbd565b9050919050565b6000819050919050565b6114d8836114a3565b6114ec6114e4826114c5565b848454611447565b825550505050565b600090565b6115016114f4565b61150c8184846114cf565b505050565b5b81811015611530576115256000826114f9565b600181019050611512565b5050565b601f82111561157557611546816112c6565b61154f8461142a565b8101602085101561155e578190505b61157261156a8561142a565b830182611511565b50505b505050565b600082821c905092915050565b60006115986000198460080261157a565b1980831691505092915050565b60006115b18383611587565b9150826002028217905092915050565b6115ca82610c3e565b67ffffffffffffffff8111156115e3576115e2610aca565b5b6115ed825461125b565b6115f8828285611534565b600060209050601f83116001811461162b5760008415611619578287015190505b61162385826115a5565b86555061168b565b601f198416611639866112c6565b60005b828110156116615784890151825560018201915060208501945060208101905061163c565b8683101561167e578489015161167a601f891682611587565b8355505b6001600288020188555050505b505050505050565b600082905092915050565b6116a88383611693565b67ffffffffffffffff8111156116c1576116c0610aca565b5b6116cb825461125b565b6116d6828285611534565b6000601f83116001811461170557600084156116f3578287013590505b6116fd85826115a5565b865550611765565b601f198416611713866112c6565b60005b8281101561173b57848901358255600182019150602085019450602081019050611716565b868310156117585784890135611754601f891682611587565b8355505b6001600288020188555050505b50505050505050565b600061177982610c3e565b61178381856112bb565b9350611793818560208601610c5a565b80840191505092915050565b60006117ab828461176e565b91508190509291505056fea2646970667358221220a6034b3e72e52daccf53eaec2a378d7fe2fbf10bc124b3f8ec5fcc1597287aad64736f6c63430008110033",
  "immutableReferences": {},
  "source": "// SPDX-License-Identifier: MIT\r\npragma solidity >=0.4.22 <0.9.0;\r\n\r\ncontract PT {\r\n    struct Product {\r\n        string name;\r\n        uint bought_weight;\r\n        uint sold_weight;\r\n        uint price;\r\n        string prev;\r\n        bool isConsumed;\r\n    }\r\n\r\n    mapping(string => Product) public transactions;\r\n    string[] public list;\r\n\r\n    function addProductByFarmer(\r\n        string calldata id,\r\n        string calldata _name,\r\n        uint _bought_weight,\r\n        uint _sold_weight,\r\n        uint price\r\n    ) public {\r\n        Product memory product = Product(\r\n            _name,\r\n            _bought_weight,\r\n            _sold_weight,\r\n            price,\r\n            \"\",\r\n            false\r\n        );\r\n        transactions[id] = product;\r\n        list.push(id);\r\n    }\r\n\r\n    function addProductByTrader(\r\n        string calldata _id,\r\n        uint weight_to_buy,\r\n        uint price,\r\n        string calldata _prev\r\n    ) public {\r\n        Product memory prevProduct = getProduct(_prev);\r\n        // require(prevProduct != address(0), \"Previous product must exist\");\r\n        bool consume = false;\r\n        if (prevProduct.bought_weight == weight_to_buy) {\r\n            consume = true;\r\n        }\r\n\r\n        Product memory product = Product(\r\n            prevProduct.name,\r\n            prevProduct.bought_weight,\r\n            weight_to_buy,\r\n            price,\r\n            _prev,\r\n            consume\r\n        );\r\n\r\n        transactions[_id] = product;\r\n        list.push(_id);\r\n    }\r\n\r\n    function getProduct(\r\n        string memory _id\r\n    ) public view returns (Product memory) {\r\n        return transactions[_id];\r\n        // return products[_id];\r\n    }\r\n\r\n    function getAllProducts() public view returns (Product[] memory) {\r\n        Product[] memory output = new Product[](list.length);\r\n        for (uint i = 0; i < list.length; i++) {\r\n            output[i] = transactions[list[i]];\r\n        }\r\n        return output;\r\n    }\r\n}\r\n",
  "sourcePath": "D:\\farmtracelo\\smart-contract\\contracts\\PT.sol",
  "compiler": {
    "name": "solc",
    "version": "0.8.17+commit.8df45f5f.Emscripten.clang"
  },
  "schemaVersion": "3.4.16",
  "updatedAt": "2024-02-25T02:19:50.188Z",
  "networkType": "ethereum",
  "devdoc": {
    "kind": "dev",
    "methods": {},
    "version": 1
  },
  "userdoc": {
    "kind": "user",
    "methods": {},
    "version": 1
  }
}