{
  "contractName": "PT",
  "contractAddress": "0x56f27b892E89a88E991c73f53405CA85e9B92A01",
  "abi": [
    {
      "inputs": [
        {
          "internalType": "uint256",
          "name": "",
          "type": "uint256"
        }
      ],
      "name": "list",
      "outputs": [
        {
          "internalType": "string",
          "name": "",
          "type": "string"
        }
      ],
      "stateMutability": "view",
      "type": "function",
      "constant": true
    },
    {
      "inputs": [
        {
          "internalType": "string",
          "name": "",
          "type": "string"
        }
      ],
      "name": "transactions",
      "outputs": [
        {
          "internalType": "string",
          "name": "prod_id",
          "type": "string"
        },
        {
          "internalType": "string",
          "name": "name",
          "type": "string"
        },
        {
          "internalType": "string",
          "name": "date",
          "type": "string"
        },
        {
          "internalType": "uint256",
          "name": "bought_weight",
          "type": "uint256"
        },
        {
          "internalType": "address",
          "name": "seller",
          "type": "address"
        },
        {
          "internalType": "uint256",
          "name": "price",
          "type": "uint256"
        },
        {
          "internalType": "string",
          "name": "prev",
          "type": "string"
        },
        {
          "internalType": "bool",
          "name": "isConsumed",
          "type": "bool"
        }
      ],
      "stateMutability": "view",
      "type": "function",
      "constant": true
    },
    {
      "inputs": [
        {
          "internalType": "string",
          "name": "id",
          "type": "string"
        },
        {
          "internalType": "string",
          "name": "_name",
          "type": "string"
        },
        {
          "internalType": "string",
          "name": "_date",
          "type": "string"
        },
        {
          "internalType": "uint256",
          "name": "_bought_weight",
          "type": "uint256"
        },
        {
          "internalType": "uint256",
          "name": "price",
          "type": "uint256"
        }
      ],
      "name": "addProductByFarmer",
      "outputs": [],
      "stateMutability": "nonpayable",
      "type": "function"
    },
    {
      "inputs": [
        {
          "internalType": "string",
          "name": "_id",
          "type": "string"
        },
        {
          "internalType": "string",
          "name": "_date",
          "type": "string"
        },
        {
          "internalType": "uint256",
          "name": "weight_to_buy",
          "type": "uint256"
        },
        {
          "internalType": "uint256",
          "name": "price",
          "type": "uint256"
        },
        {
          "internalType": "string",
          "name": "_prev",
          "type": "string"
        }
      ],
      "name": "addProductByTrader",
      "outputs": [],
      "stateMutability": "nonpayable",
      "type": "function"
    },
    {
      "inputs": [
        {
          "internalType": "string",
          "name": "_id",
          "type": "string"
        }
      ],
      "name": "getProduct",
      "outputs": [
        {
          "components": [
            {
              "internalType": "string",
              "name": "prod_id",
              "type": "string"
            },
            {
              "internalType": "string",
              "name": "name",
              "type": "string"
            },
            {
              "internalType": "string",
              "name": "date",
              "type": "string"
            },
            {
              "internalType": "uint256",
              "name": "bought_weight",
              "type": "uint256"
            },
            {
              "internalType": "address",
              "name": "seller",
              "type": "address"
            },
            {
              "internalType": "uint256",
              "name": "price",
              "type": "uint256"
            },
            {
              "internalType": "string",
              "name": "prev",
              "type": "string"
            },
            {
              "internalType": "bool",
              "name": "isConsumed",
              "type": "bool"
            }
          ],
          "internalType": "struct PT.Product",
          "name": "",
          "type": "tuple"
        }
      ],
      "stateMutability": "view",
      "type": "function",
      "constant": true
    },
    {
      "inputs": [],
      "name": "getAllProducts",
      "outputs": [
        {
          "components": [
            {
              "internalType": "string",
              "name": "prod_id",
              "type": "string"
            },
            {
              "internalType": "string",
              "name": "name",
              "type": "string"
            },
            {
              "internalType": "string",
              "name": "date",
              "type": "string"
            },
            {
              "internalType": "uint256",
              "name": "bought_weight",
              "type": "uint256"
            },
            {
              "internalType": "address",
              "name": "seller",
              "type": "address"
            },
            {
              "internalType": "uint256",
              "name": "price",
              "type": "uint256"
            },
            {
              "internalType": "string",
              "name": "prev",
              "type": "string"
            },
            {
              "internalType": "bool",
              "name": "isConsumed",
              "type": "bool"
            }
          ],
          "internalType": "struct PT.Product[]",
          "name": "",
          "type": "tuple[]"
        }
      ],
      "stateMutability": "view",
      "type": "function",
      "constant": true
    },
    {
      "inputs": [],
      "name": "getSellerProduct",
      "outputs": [
        {
          "components": [
            {
              "internalType": "string",
              "name": "prod_id",
              "type": "string"
            },
            {
              "internalType": "string",
              "name": "name",
              "type": "string"
            },
            {
              "internalType": "string",
              "name": "date",
              "type": "string"
            },
            {
              "internalType": "uint256",
              "name": "bought_weight",
              "type": "uint256"
            },
            {
              "internalType": "address",
              "name": "seller",
              "type": "address"
            },
            {
              "internalType": "uint256",
              "name": "price",
              "type": "uint256"
            },
            {
              "internalType": "string",
              "name": "prev",
              "type": "string"
            },
            {
              "internalType": "bool",
              "name": "isConsumed",
              "type": "bool"
            }
          ],
          "internalType": "struct PT.Product[]",
          "name": "",
          "type": "tuple[]"
        }
      ],
      "stateMutability": "view",
      "type": "function",
      "constant": true
    }
  ],
  "bytecode": "0x608060405234801561001057600080fd5b5061270a806100206000396000f3fe608060405234801561001057600080fd5b506004361061007d5760003560e01c80633550a9181161005b5780633550a918146100f35780635f097c8c1461011157806368111cce1461012d57806380c9419e1461015d5761007d565b8063022236f41461008257806302ee3a52146100b957806328a01598146100d7575b600080fd5b61009c60048036038101906100979190611905565b61018d565b6040516100b0989796959493929190611a42565b60405180910390f35b6100c1610438565b6040516100ce9190611cda565b60405180910390f35b6100f160048036038101906100ec9190611d88565b6108d7565b005b6100fb610ccb565b6040516101089190611cda565b60405180910390f35b61012b60048036038101906101269190611e64565b61112a565b005b61014760048036038101906101429190611905565b61139c565b6040516101549190612005565b60405180910390f35b61017760048036038101906101729190612027565b6116a2565b6040516101849190612054565b60405180910390f35b6000818051602081018201805184825260208301602085012081835280955050505050506000915090508060000180546101c6906120a5565b80601f01602080910402602001604051908101604052809291908181526020018280546101f2906120a5565b801561023f5780601f106102145761010080835404028352916020019161023f565b820191906000526020600020905b81548152906001019060200180831161022257829003601f168201915b505050505090806001018054610254906120a5565b80601f0160208091040260200160405190810160405280929190818152602001828054610280906120a5565b80156102cd5780601f106102a2576101008083540402835291602001916102cd565b820191906000526020600020905b8154815290600101906020018083116102b057829003601f168201915b5050505050908060020180546102e2906120a5565b80601f016020809104026020016040519081016040528092919081815260200182805461030e906120a5565b801561035b5780601f106103305761010080835404028352916020019161035b565b820191906000526020600020905b81548152906001019060200180831161033e57829003601f168201915b5050505050908060030154908060040160009054906101000a900473ffffffffffffffffffffffffffffffffffffffff16908060050154908060060180546103a2906120a5565b80601f01602080910402602001604051908101604052809291908181526020018280546103ce906120a5565b801561041b5780601f106103f05761010080835404028352916020019161041b565b820191906000526020600020905b8154815290600101906020018083116103fe57829003601f168201915b5050505050908060070160009054906101000a900460ff16905088565b60606000805b6001805490508110156104bd57600060018281548110610461576104606120d6565b5b9060005260206000200160405161047891906121a8565b908152602001604051809103902060070160009054906101000a900460ff166104aa5781806104a6906121ee565b9250505b80806104b5906121ee565b91505061043e565b5060008167ffffffffffffffff8111156104da576104d96117da565b5b60405190808252806020026020018201604052801561051357816020015b61050061174e565b8152602001906001900390816104f85790505b5090506000915060005b6001805490508110156108ce576000600182815481106105405761053f6120d6565b5b9060005260206000200160405161055791906121a8565b908152602001604051809103902060070160009054906101000a900460ff166108bb576000600182815481106105905761058f6120d6565b5b906000526020600020016040516105a791906121a8565b9081526020016040518091039020604051806101000160405290816000820180546105d1906120a5565b80601f01602080910402602001604051908101604052809291908181526020018280546105fd906120a5565b801561064a5780601f1061061f5761010080835404028352916020019161064a565b820191906000526020600020905b81548152906001019060200180831161062d57829003601f168201915b50505050508152602001600182018054610663906120a5565b80601f016020809104026020016040519081016040528092919081815260200182805461068f906120a5565b80156106dc5780601f106106b1576101008083540402835291602001916106dc565b820191906000526020600020905b8154815290600101906020018083116106bf57829003601f168201915b505050505081526020016002820180546106f5906120a5565b80601f0160208091040260200160405190810160405280929190818152602001828054610721906120a5565b801561076e5780601f106107435761010080835404028352916020019161076e565b820191906000526020600020905b81548152906001019060200180831161075157829003601f168201915b50505050508152602001600382015481526020016004820160009054906101000a900473ffffffffffffffffffffffffffffffffffffffff1673ffffffffffffffffffffffffffffffffffffffff1673ffffffffffffffffffffffffffffffffffffffff168152602001600582015481526020016006820180546107f1906120a5565b80601f016020809104026020016040519081016040528092919081815260200182805461081d906120a5565b801561086a5780601f1061083f5761010080835404028352916020019161086a565b820191906000526020600020905b81548152906001019060200180831161084d57829003601f168201915b505050505081526020016007820160009054906101000a900460ff1615151515815250508284815181106108a1576108a06120d6565b5b602002602001018190525082806108b7906121ee565b9350505b80806108c6906121ee565b91505061051d565b50809250505090565b600061092683838080601f016020809104026020016040519081016040528093929190818152602001838380828437600081840152601f19601f8201169050808301925050505050505061139c565b9050600081602001515111610970576040517f08c379a000000000000000000000000000000000000000000000000000000000815260040161096790612282565b60405180910390fd5b848160600151101561098157600080fd5b848160600151036109f557600080848460405161099f9291906122c7565b9081526020016040518091039020600301819055506001600084846040516109c89291906122c7565b908152602001604051809103902060070160006101000a81548160ff021916908315150217905550610a63565b8460008484604051610a089291906122c7565b90815260200160405180910390206003016000828254610a2891906122e0565b92505081905550868660008585604051610a439291906122c7565b90815260200160405180910390206002019182610a619291906124b6565b505b60006040518061010001604052808b8b8080601f016020809104026020016040519081016040528093929190818152602001838380828437600081840152601f19601f8201169050808301925050505050505081526020018360200151815260200189898080601f016020809104026020016040519081016040528093929190818152602001838380828437600081840152601f19601f8201169050808301925050505050505081526020018781526020013373ffffffffffffffffffffffffffffffffffffffff16815260200186815260200185858080601f016020809104026020016040519081016040528093929190818152602001838380828437600081840152601f19601f8201169050808301925050505050505081526020016000151581525090508060008b8b604051610b9d9291906122c7565b90815260200160405180910390206000820151816000019081610bc09190612586565b506020820151816001019081610bd69190612586565b506040820151816002019081610bec9190612586565b506060820151816003015560808201518160040160006101000a81548173ffffffffffffffffffffffffffffffffffffffff021916908373ffffffffffffffffffffffffffffffffffffffff16021790555060a0820151816005015560c0820151816006019081610c5d9190612586565b5060e08201518160070160006101000a81548160ff02191690831515021790555090505060018a8a90918060018154018082558091505060019003906000526020600020016000909192909192909192909192509182610cbe9291906124b6565b5050505050505050505050565b6060600060018054905067ffffffffffffffff811115610cee57610ced6117da565b5b604051908082528060200260200182016040528015610d2757816020015b610d1461174e565b815260200190600190039081610d0c5790505b5090506000805b600180549050811015611121573373ffffffffffffffffffffffffffffffffffffffff16600060018381548110610d6857610d676120d6565b5b90600052602060002001604051610d7f91906121a8565b908152602001604051809103902060040160009054906101000a900473ffffffffffffffffffffffffffffffffffffffff1673ffffffffffffffffffffffffffffffffffffffff160361110e57600060018281548110610de257610de16120d6565b5b90600052602060002001604051610df991906121a8565b908152602001604051809103902060405180610100016040529081600082018054610e23906120a5565b80601f0160208091040260200160405190810160405280929190818152602001828054610e4f906120a5565b8015610e9c5780601f10610e7157610100808354040283529160200191610e9c565b820191906000526020600020905b815481529060010190602001808311610e7f57829003601f168201915b50505050508152602001600182018054610eb5906120a5565b80601f0160208091040260200160405190810160405280929190818152602001828054610ee1906120a5565b8015610f2e5780601f10610f0357610100808354040283529160200191610f2e565b820191906000526020600020905b815481529060010190602001808311610f1157829003601f168201915b50505050508152602001600282018054610f47906120a5565b80601f0160208091040260200160405190810160405280929190818152602001828054610f73906120a5565b8015610fc05780601f10610f9557610100808354040283529160200191610fc0565b820191906000526020600020905b815481529060010190602001808311610fa357829003601f168201915b50505050508152602001600382015481526020016004820160009054906101000a900473ffffffffffffffffffffffffffffffffffffffff1673ffffffffffffffffffffffffffffffffffffffff1673ffffffffffffffffffffffffffffffffffffffff16815260200160058201548152602001600682018054611043906120a5565b80601f016020809104026020016040519081016040528092919081815260200182805461106f906120a5565b80156110bc5780601f10611091576101008083540402835291602001916110bc565b820191906000526020600020905b81548152906001019060200180831161109f57829003601f168201915b505050505081526020016007820160009054906101000a900460ff1615151515815250508383815181106110f3576110f26120d6565b5b602002602001018190525060018261110b9190612658565b91505b8080611119906121ee565b915050610d2e565b50819250505090565b60006040518061010001604052808a8a8080601f016020809104026020016040519081016040528093929190818152602001838380828437600081840152601f19601f82011690508083019250505050505050815260200188888080601f016020809104026020016040519081016040528093929190818152602001838380828437600081840152601f19601f82011690508083019250505050505050815260200186868080601f016020809104026020016040519081016040528093929190818152602001838380828437600081840152601f19601f8201169050808301925050505050505081526020018481526020013373ffffffffffffffffffffffffffffffffffffffff1681526020018381526020016040518060200160405280600081525081526020016000151581525090508060008a8a60405161126f9291906122c7565b908152602001604051809103902060008201518160000190816112929190612586565b5060208201518160010190816112a89190612586565b5060408201518160020190816112be9190612586565b506060820151816003015560808201518160040160006101000a81548173ffffffffffffffffffffffffffffffffffffffff021916908373ffffffffffffffffffffffffffffffffffffffff16021790555060a0820151816005015560c082015181600601908161132f9190612586565b5060e08201518160070160006101000a81548160ff02191690831515021790555090505060018989909180600181540180825580915050600190039060005260206000200160009091929091929091929091925091826113909291906124b6565b50505050505050505050565b6113a461174e565b6000826040516113b491906126bd565b9081526020016040518091039020604051806101000160405290816000820180546113de906120a5565b80601f016020809104026020016040519081016040528092919081815260200182805461140a906120a5565b80156114575780601f1061142c57610100808354040283529160200191611457565b820191906000526020600020905b81548152906001019060200180831161143a57829003601f168201915b50505050508152602001600182018054611470906120a5565b80601f016020809104026020016040519081016040528092919081815260200182805461149c906120a5565b80156114e95780601f106114be576101008083540402835291602001916114e9565b820191906000526020600020905b8154815290600101906020018083116114cc57829003601f168201915b50505050508152602001600282018054611502906120a5565b80601f016020809104026020016040519081016040528092919081815260200182805461152e906120a5565b801561157b5780601f106115505761010080835404028352916020019161157b565b820191906000526020600020905b81548152906001019060200180831161155e57829003601f168201915b50505050508152602001600382015481526020016004820160009054906101000a900473ffffffffffffffffffffffffffffffffffffffff1673ffffffffffffffffffffffffffffffffffffffff1673ffffffffffffffffffffffffffffffffffffffff168152602001600582015481526020016006820180546115fe906120a5565b80601f016020809104026020016040519081016040528092919081815260200182805461162a906120a5565b80156116775780601f1061164c57610100808354040283529160200191611677565b820191906000526020600020905b81548152906001019060200180831161165a57829003601f168201915b505050505081526020016007820160009054906101000a900460ff1615151515815250509050919050565b600181815481106116b257600080fd5b9060005260206000200160009150905080546116cd906120a5565b80601f01602080910402602001604051908101604052809291908181526020018280546116f9906120a5565b80156117465780601f1061171b57610100808354040283529160200191611746565b820191906000526020600020905b81548152906001019060200180831161172957829003601f168201915b505050505081565b60405180610100016040528060608152602001606081526020016060815260200160008152602001600073ffffffffffffffffffffffffffffffffffffffff16815260200160008152602001606081526020016000151581525090565b6000604051905090565b600080fd5b600080fd5b600080fd5b600080fd5b6000601f19601f8301169050919050565b7f4e487b7100000000000000000000000000000000000000000000000000000000600052604160045260246000fd5b611812826117c9565b810181811067ffffffffffffffff82111715611831576118306117da565b5b80604052505050565b60006118446117ab565b90506118508282611809565b919050565b600067ffffffffffffffff8211156118705761186f6117da565b5b611879826117c9565b9050602081019050919050565b82818337600083830152505050565b60006118a86118a384611855565b61183a565b9050828152602081018484840111156118c4576118c36117c4565b5b6118cf848285611886565b509392505050565b600082601f8301126118ec576118eb6117bf565b5b81356118fc848260208601611895565b91505092915050565b60006020828403121561191b5761191a6117b5565b5b600082013567ffffffffffffffff811115611939576119386117ba565b5b611945848285016118d7565b91505092915050565b600081519050919050565b600082825260208201905092915050565b60005b8381101561198857808201518184015260208101905061196d565b60008484015250505050565b600061199f8261194e565b6119a98185611959565b93506119b981856020860161196a565b6119c2816117c9565b840191505092915050565b6000819050919050565b6119e0816119cd565b82525050565b600073ffffffffffffffffffffffffffffffffffffffff82169050919050565b6000611a11826119e6565b9050919050565b611a2181611a06565b82525050565b60008115159050919050565b611a3c81611a27565b82525050565b6000610100820190508181036000830152611a5d818b611994565b90508181036020830152611a71818a611994565b90508181036040830152611a858189611994565b9050611a9460608301886119d7565b611aa16080830187611a18565b611aae60a08301866119d7565b81810360c0830152611ac08185611994565b9050611acf60e0830184611a33565b9998505050505050505050565b600081519050919050565b600082825260208201905092915050565b6000819050602082019050919050565b600082825260208201905092915050565b6000611b248261194e565b611b2e8185611b08565b9350611b3e81856020860161196a565b611b47816117c9565b840191505092915050565b611b5b816119cd565b82525050565b611b6a81611a06565b82525050565b611b7981611a27565b82525050565b6000610100830160008301518482036000860152611b9d8282611b19565b91505060208301518482036020860152611bb78282611b19565b91505060408301518482036040860152611bd18282611b19565b9150506060830151611be66060860182611b52565b506080830151611bf96080860182611b61565b5060a0830151611c0c60a0860182611b52565b5060c083015184820360c0860152611c248282611b19565b91505060e0830151611c3960e0860182611b70565b508091505092915050565b6000611c508383611b7f565b905092915050565b6000602082019050919050565b6000611c7082611adc565b611c7a8185611ae7565b935083602082028501611c8c85611af8565b8060005b85811015611cc85784840389528151611ca98582611c44565b9450611cb483611c58565b925060208a01995050600181019050611c90565b50829750879550505050505092915050565b60006020820190508181036000830152611cf48184611c65565b905092915050565b600080fd5b600080fd5b60008083601f840112611d1c57611d1b6117bf565b5b8235905067ffffffffffffffff811115611d3957611d38611cfc565b5b602083019150836001820283011115611d5557611d54611d01565b5b9250929050565b611d65816119cd565b8114611d7057600080fd5b50565b600081359050611d8281611d5c565b92915050565b60008060008060008060008060a0898b031215611da857611da76117b5565b5b600089013567ffffffffffffffff811115611dc657611dc56117ba565b5b611dd28b828c01611d06565b9850985050602089013567ffffffffffffffff811115611df557611df46117ba565b5b611e018b828c01611d06565b96509650506040611e148b828c01611d73565b9450506060611e258b828c01611d73565b935050608089013567ffffffffffffffff811115611e4657611e456117ba565b5b611e528b828c01611d06565b92509250509295985092959890939650565b60008060008060008060008060a0898b031215611e8457611e836117b5565b5b600089013567ffffffffffffffff811115611ea257611ea16117ba565b5b611eae8b828c01611d06565b9850985050602089013567ffffffffffffffff811115611ed157611ed06117ba565b5b611edd8b828c01611d06565b9650965050604089013567ffffffffffffffff811115611f0057611eff6117ba565b5b611f0c8b828c01611d06565b94509450506060611f1f8b828c01611d73565b9250506080611f308b828c01611d73565b9150509295985092959890939650565b6000610100830160008301518482036000860152611f5e8282611b19565b91505060208301518482036020860152611f788282611b19565b91505060408301518482036040860152611f928282611b19565b9150506060830151611fa76060860182611b52565b506080830151611fba6080860182611b61565b5060a0830151611fcd60a0860182611b52565b5060c083015184820360c0860152611fe58282611b19565b91505060e0830151611ffa60e0860182611b70565b508091505092915050565b6000602082019050818103600083015261201f8184611f40565b905092915050565b60006020828403121561203d5761203c6117b5565b5b600061204b84828501611d73565b91505092915050565b6000602082019050818103600083015261206e8184611994565b905092915050565b7f4e487b7100000000000000000000000000000000000000000000000000000000600052602260045260246000fd5b600060028204905060018216806120bd57607f821691505b6020821081036120d0576120cf612076565b5b50919050565b7f4e487b7100000000000000000000000000000000000000000000000000000000600052603260045260246000fd5b600081905092915050565b60008190508160005260206000209050919050565b60008154612132816120a5565b61213c8186612105565b94506001821660008114612157576001811461216c5761219f565b60ff198316865281151582028601935061219f565b61217585612110565b60005b8381101561219757815481890152600182019150602081019050612178565b838801955050505b50505092915050565b60006121b48284612125565b915081905092915050565b7f4e487b7100000000000000000000000000000000000000000000000000000000600052601160045260246000fd5b60006121f9826119cd565b91507fffffffffffffffffffffffffffffffffffffffffffffffffffffffffffffffff820361222b5761222a6121bf565b5b600182019050919050565b7f50726576696f75732070726f64756374206d7573742065786973740000000000600082015250565b600061226c601b83611959565b915061227782612236565b602082019050919050565b6000602082019050818103600083015261229b8161225f565b9050919050565b60006122ae8385612105565b93506122bb838584611886565b82840190509392505050565b60006122d48284866122a2565b91508190509392505050565b60006122eb826119cd565b91506122f6836119cd565b925082820390508181111561230e5761230d6121bf565b5b92915050565b600082905092915050565b60006020601f8301049050919050565b600082821b905092915050565b60006008830261236c7fffffffffffffffffffffffffffffffffffffffffffffffffffffffffffffffff8261232f565b612376868361232f565b95508019841693508086168417925050509392505050565b6000819050919050565b60006123b36123ae6123a9846119cd565b61238e565b6119cd565b9050919050565b6000819050919050565b6123cd83612398565b6123e16123d9826123ba565b84845461233c565b825550505050565b600090565b6123f66123e9565b6124018184846123c4565b505050565b5b818110156124255761241a6000826123ee565b600181019050612407565b5050565b601f82111561246a5761243b81612110565b6124448461231f565b81016020851015612453578190505b61246761245f8561231f565b830182612406565b50505b505050565b600082821c905092915050565b600061248d6000198460080261246f565b1980831691505092915050565b60006124a6838361247c565b9150826002028217905092915050565b6124c08383612314565b67ffffffffffffffff8111156124d9576124d86117da565b5b6124e382546120a5565b6124ee828285612429565b6000601f83116001811461251d576000841561250b578287013590505b612515858261249a565b86555061257d565b601f19841661252b86612110565b60005b828110156125535784890135825560018201915060208501945060208101905061252e565b86831015612570578489013561256c601f89168261247c565b8355505b6001600288020188555050505b50505050505050565b61258f8261194e565b67ffffffffffffffff8111156125a8576125a76117da565b5b6125b282546120a5565b6125bd828285612429565b600060209050601f8311600181146125f057600084156125de578287015190505b6125e8858261249a565b865550612650565b601f1984166125fe86612110565b60005b8281101561262657848901518255600182019150602085019450602081019050612601565b86831015612643578489015161263f601f89168261247c565b8355505b6001600288020188555050505b505050505050565b6000612663826119cd565b915061266e836119cd565b9250828201905080821115612686576126856121bf565b5b92915050565b60006126978261194e565b6126a18185612105565b93506126b181856020860161196a565b80840191505092915050565b60006126c9828461268c565b91508190509291505056fea26469706673582212203d9953260b5731c93d681ee288da34b965eab3d00a52c94ddcbc43faf5062f1e64736f6c63430008110033",
  "immutableReferences": {},
  "source": "// SPDX-License-Identifier: MIT\r\npragma solidity >=0.4.22 <0.9.0;\r\n\r\ncontract PT {\r\n    struct Product {\r\n        string prod_id;\r\n        string name;\r\n        string date;\r\n        uint bought_weight;\r\n        address seller;\r\n        // uint sold_weight;\r\n        uint price;\r\n        string prev;\r\n        bool isConsumed;\r\n    }\r\n\r\n    mapping(string => Product) public transactions;\r\n    string[] public list;\r\n\r\n    function addProductByFarmer(\r\n        string calldata id,\r\n        string calldata _name,\r\n        string calldata _date,\r\n        uint _bought_weight,\r\n        // uint _sold_weight,\r\n        uint price\r\n    ) public {\r\n        Product memory product = Product(\r\n            id,\r\n            _name,\r\n            _date,\r\n            _bought_weight,\r\n            msg.sender,\r\n            // _sold_weight,\r\n            price,\r\n            \"\",\r\n            false\r\n        );\r\n        transactions[id] = product;\r\n        list.push(id);\r\n    }\r\n\r\n    function addProductByTrader(\r\n        string calldata _id,\r\n        string calldata _date,\r\n        uint weight_to_buy,\r\n        uint price,\r\n        string calldata _prev\r\n    ) public {\r\n        Product memory prevProduct = getProduct(_prev);\r\n        require(\r\n            bytes(prevProduct.name).length > 0,\r\n            \"Previous product must exist\"\r\n        );\r\n        require(prevProduct.bought_weight >= weight_to_buy);\r\n        if (prevProduct.bought_weight == weight_to_buy) {\r\n            transactions[_prev].bought_weight = 0;\r\n            transactions[_prev].isConsumed = true;\r\n        } else {\r\n            transactions[_prev].bought_weight -= weight_to_buy;\r\n            transactions[_prev].date = _date;\r\n        }\r\n\r\n        Product memory product = Product(\r\n            _id,\r\n            prevProduct.name,\r\n            // prevProduct.bought_weight,\r\n            _date,\r\n            weight_to_buy,\r\n            msg.sender,\r\n            price,\r\n            _prev,\r\n            false\r\n        );\r\n\r\n        transactions[_id] = product;\r\n        list.push(_id);\r\n    }\r\n\r\n    function getProduct(\r\n        string memory _id\r\n    ) public view returns (Product memory) {\r\n        return transactions[_id];\r\n        // return products[_id];\r\n    }\r\n\r\n    function getAllProducts() public view returns (Product[] memory) {\r\n        uint j = 0;\r\n        for (uint i = 0; i < list.length; i++) {\r\n            if (!transactions[list[i]].isConsumed) {\r\n                j++;\r\n            }\r\n        }\r\n        Product[] memory output = new Product[](j);\r\n        j = 0;\r\n        for (uint i = 0; i < list.length; i++) {\r\n            if (!transactions[list[i]].isConsumed) {\r\n                output[j] = transactions[list[i]];\r\n                j++;\r\n            }\r\n        }\r\n\r\n        return output;\r\n    }\r\n\r\n    function getSellerProduct() public view returns (Product[] memory) {\r\n        Product[] memory results = new Product[](list.length);\r\n        uint j = 0;\r\n        for (uint i = 0; i < list.length; i++) {\r\n            if (transactions[list[i]].seller == msg.sender) {\r\n                results[j] = transactions[list[i]];\r\n                j = j + 1;\r\n            }\r\n        }\r\n        return results;\r\n    }\r\n}\r\n",
  "sourcePath": "D:\\farmtracelo\\src\\smart-contract\\contracts\\PT.sol",
  "compiler": {
    "name": "solc",
    "version": "0.8.17+commit.8df45f5f.Emscripten.clang"
  },
  "schemaVersion": "3.4.16",
  "updatedAt": "2024-02-25T10:03:29.625Z",
  "networkType": "ethereum",
  "devdoc": {
    "kind": "dev",
    "methods": {},
    "version": 1
  },
  "userdoc": {
    "kind": "user",
    "methods": {},
    "version": 1
  }
}